:1020000000800020210302000903020009030200EE
:1020100000000000000000000000000000000000C0
:1020200000000000000000000000000009030200A2
:102030000000000000000000090302007503020018
:10204000090302000903020009030200DD2E01005A
:1020500099F6010009030200B1D401000D0302004A
:102060000903020059D60100C963000009030200F8
:10207000A57401000903020039DB00000903020016
:102080000903020009030200090302000903020018
:10209000F91F0100090302000903020009030200FD
:1020A00009030200090302000903020009030200F8
:1020B0000000000010B5064C2378002B07D1054B1B
:1020C000002B02D0044800E000BF0123237010BDA4
:1020D000D002002000000000D0310300044B10B5F6
:1020E000002B03D00349044800E000BF10BDC046E8
:1020F00000000000D4020020D031030010B504001D
:102100008B681DF0CBFF200010BD10B504F03AFF26
:1021100010BD000037B5040004F0FAFE2100A43120
:102120000968144B01912100E5182200BD23983164
:1021300009689B0100918C32E318280012680E494F
:1021400025F02CF901222000110004F07BFB210076
:102150002300BC310968094A0091B033A2181B68FA
:102160002800074925F01AF901222000110004F087
:1021700069FB37BD7424000035B602006D220000F3
:1021800084B6020010B5154B1A78D2B2042A18D0C2
:1021900004D8012A0CD0022A0FD010BD202A14D056
:1021A000402A16D0102AF8D101230D491A0001E067
:1021B00013000C4904F0CCFBEFE701230A491A0095
:1021C000F8E7012309491A00F4E7012308491A0036
:1021D000F0E7012307491A00ECE7C0463804004045
:1021E000FDB70200A3B70200B7B70200DAB70200DA
:1021F00011B8020025B802008B6810B50400002B4E
:1022000010D1194B194AC35C19499B18194A9B00F4
:1022100080181A5925F0C2F801222000110004F09C
:1022200011FB10BD08001EF041F8C3B2022B14D8F8
:102230000D4A1149A3540D4A9B180E4A9B00A01841
:102240001A5925F0ABF801222000110004F0FAFA27
:102250000021200006F0DEFDE3E7012307491A0014
:10226000200004F075FBDCE7162400001A090000CA
:10227000D4B4020074240000EDB4020002B50200E0
:102280000122F0B511008BB0050004F0DBFA9A23AF
:1022900001279B01EC18C133FF33EB18039314495A
:1022A00004A81DF0C9FC216807A8069E1DF0C4FC07
:1022B000099B04A8F11A1DF0BDFF07A81DF06DFCD5
:1022C00063680C4800932268049B0B49281825F08A
:1022D00065F83A003900280004F0B4FA04A81DF0AB
:1022E0005CFC039B10349C42D9D10BB0F0BDC046BE
:1022F000BEBA020074240000CBBA020070B505001B
:1023000000240126074B2000E9180022013419F0AF
:1023100059FAE4B232003100280004F093FA1A2C82
:10232000F0D170BD74240000F0B505008C68C9358B
:102330009BB006000F00FF35002C5BD1C94BCA498A
:10234000C3181800039325F061F801223000110032
:1023500004F078FA2C27210028001AF011F87843AD
:102360002B180433DB7F002B08D13018D130FF301D
:10237000013301681A00300004F0EAFA0134E4B2D3
:10238000432CE8D1B949039825F040F801223000E8
:102390001100802704F056FA0024BF002100280015
:1023A00019F0EEFF2C2358432B181A1DD27F002A58
:1023B0001AD00233DA7FAE4B3018F358D130534382
:1023C0000092FF3001930368AA4A3900039824F071
:1023D000B3FF00220121300004F034FA0123A649A2
:1023E0001A00300004F0B4FA0134E4B2432CD5D121
:1023F0001BB0F0BDA14915A81DF01EFC15A93800A1
:102400001DF021FE040015A8013C1DF0C6FB23B2FF
:102410000022390015A81DF041FE1599280019F079
:1024200079FF039015A81DF0B8FB0D2311220CA90C
:102430000B7001334B7001338B700133CB7010ABD9
:102440001A7001325A70182001329A700132DA7013
:1024500001321A7101325A711693894B1A250E9363
:1024600002230DAA107001385070053090700138A9
:102470000AACD070023820700430607017920BA83C
:102480000EAA05701371043515AB457019900693AB
:1024900018000023159118940593049307920021C6
:1024A000079A9D5CCCB2A5420BD90468625C944645
:1024B000039A944503D0049C01310494F2E70595F6
:1024C000FAE701330430052BE9D1039B432B06D1F6
:1024D000423B1A006B49300004F03AFA88E76A4937
:1024E00012A81DF0A9FB12A938001DF0ACFD0400D4
:1024F00012A81DF052FB002C00DAD3E00399300043
:1025000004F0AEFA041E2FD00124049D039BAC46B8
:102510005E4A9B185B00F3181C71059B634407938C
:10252000079BAB4200D101E12B78039A934219D06B
:102530002C225A43B118CD31FF31CC775349B21810
:102540005B185B00F3181C711300D133FF331A685A
:10255000444B4F49F01824F021FF012230001100B4
:1025600004F070F90135DBE72C23039A4949534302
:10257000F318D133FF331A683A4BF01824F00EFFEA
:1025800001223000110004F05DF9434D12A829002A
:102590001DF052FB12A938001DF055FD079012A83E
:1025A0001DF0FBFA079B002B00DA1AE1290012A8A4
:1025B0001DF042FB12A938001DF045FD050012A8D0
:1025C0000A351DF0EAFA2AB2390012A8FFF796FD83
:1025D00012A81DF06BFE264BF558290020F05AFC7E
:1025E000234BC7B20893002F00D1013780211D4B28
:1025F0002A4AF318079389002B00079824F09CFEC1
:1026000001223000110004F01DF9FF2F00D1F0E08D
:102610000024059BA34200D18BE0049CE518A54251
:1026200000D185E02C22237807985A43B118CB318A
:10263000FF31CF771549B2185B185B00F3185F7153
:10264000089BD132F358FF32049312687B4314493C
:1026500024F0A4FE01223000110004F0F3F801344C
:10266000DDE7C0467424000040B8020057B80200FD
:10267000682200006DB80200C9BA0200C731030029
:10268000040604028AB80200A1B80200C4110000C6
:10269000A9B80200B5B80200DEB80200E8B802002E
:1026A0003BB90200564912A81DF0C6FA12A938001B
:1026B0001DF0C9FC0024050012A81DF06EFAA54209
:1026C00000DA62E701250399300004F05BFA039B0E
:1026D0004C4A9B185B00F3181C71049C2B1B07933E
:1026E000079B059A1B19DBB29A421FD96378039A9C
:1026F000934219D02C2200215A43B018CD30FF301C
:10270000C1774048B2181B185B00F3181971D13219
:102710003D4BFF3212683D49F01824F03FFE2A007D
:102720002900300004F08EF80134D9E701242CE7A9
:102730000124F6235B01F25A354BF35AD3180022D9
:10274000100004930EABD35C00219C463300C933C8
:10275000FF330993CBB2634515D22C25069B1B682A
:102760005B5C6B43099DEB18089D02337559DB7F59
:1027700005956B43049D9D4203DD0120254BF054DC
:1027800001200131E6E7069B013204330693052A56
:10279000D8D1002801D11F4BF054002C1ED12C227F
:1027A0001849039B8C465A43B318CB33FF33DF776A
:1027B000039BB21863445B00F3185F71089BD1322E
:1027C000F358FF327B4312681349079824F0E6FD63
:1027D00001223000110004F035F8013412A81DF078
:1027E000DCF9002C00D103E60021300006F012FBDA
:1027F000FEE5012309491A00300004F0A9F8EDE7CD
:10280000C8B80200C411000074240000D1B802004E
:10281000C21E0000641E00003BB902005AB902004B
:1028200070B50C0005000B7803704B7843708B7803
:1028300083704B6843608B688360CB681031C360E2
:1028400010301DF09DFAE3692800EB61631CDA7F0C
:102850006B1CDA77A31CDA7FAB1CDA77E31CDA7F18
:10286000EB1CDA77231DDA7F2B1DDA77631DDA7F05
:102870006B1DDA772622A35E2834EB842B002278A6
:1028800028331A7070BD000070B50400C934FF34DD
:102890008EB005000968200019F03CFD2C21414351
:1028A000611803AC2000FFF7BBFF164BEE1804AB1A
:1028B000DB7F002B05D1A2681349300024F06EFDA8
:1028C0000FE02100280006F0ABFC2623E25E002A80
:1028D00011D1E3680D490093A268079B300024F0F2
:1028E0005DFD01222800110003F0ACFF07A81DF0D8
:1028F00054F90EB070BD0649531CDED1A2680549DB
:10290000DBE7C0467424000030B7020049B702007C
:102910006EB7020053B70200F0B50700C9370D00CB
:10292000FF3785B004000968380019F0F3FCAB6884
:102930000600002B07D101331A000F49200004F0D4
:1029400007F805B0F0BD432803D101230B491A0055
:10295000F4E72968380019F0F2FC2900020001A808
:10296000FFF7CCFB200001AA310004F065F901A8B3
:102970001DF013F9E5E7C04670B90200A0B90200E6
:10298000F0B58D6897B0040003910FAF002D37D1DB
:102990000123A2491A0003F0DBFF1C2229003800A2
:1029A00023F019FD9E4B3900E0180AF06DFF3A88BC
:1029B0009C4B9D49E5187B880092FF222800D2009D
:1029C00024F0ECFC01222000110003F03BFFFB6827
:1029D000964900937B687A69280024F0DFFC012285
:1029E0002000110003F02EFF3A8B9149280024F0BB
:1029F000D5FC01222000110003F024FF17B0F0BD28
:102A00008C4938001DF018F9390003981DF01BFBA4
:102A1000050038001DF0C1F8002D04DB804BE018E4
:102A20000AF042FAEAE7844938001DF005F9390056
:102A300003981DF008FB05B238001DF0AEF8002D1C
:102A400000DA89E02300CC331A780492002A0CD1F2
:102A500001321A706A462000127C41305A700521FA
:102A6000049B0322FF3009F0C7FA2A0003990932B8
:102A700009A8FFF743FB714938001DF0DDF8390064
:102A800009A81DF09CFA050038001DF086F8002DFD
:102A900013D109A81DF00AFC83B20593FF23059A00
:102AA000DB009A420AD9012320001A00644903F08E
:102AB0004FFF09A81DF071F8A0E701256149380012
:102AC0001DF0BAF8390009A81DF0BDFA060038005B
:102AD0001DF063F8F2B2013209A90CA8FFF70EFB52
:102AE000594938001DF0A8F839000CA81DF067FA04
:102AF000060073425E4138001DF04FF8F3B20793B1
:102B0000474BE3180693002D4AD000252E002900DC
:102B1000079A06980AF07CFCFF230135ADB23618FF
:102B2000DB009D42F3D13F4B3200E018474924F0CF
:102B300035FC01222000110003F084FE049B002BD1
:102B400004D16A462300127CCC331A700CA81DF005
:102B500024F809A81DF021F80FAD3D4928001DF00B
:102B60006BF8290003981DF06EFA06B228001DF0DC
:102B700014F8002E24DB0399B21D2800FFF7BEFADB
:102B800028001DF093FBFF2381B2DB0099420ED990
:102B9000012320001A002A4903F0DAFE280089E701
:102BA000079A059906980AF033FC0600BBE78022D5
:102BB0001B4B5201E0180AF0B1FD28001CF0EDFF9C
:102BC000244928001DF038F8290003981DF03BFA2D
:102BD00006B228001CF0E1FF002E00DA0EE73200FA
:102BE000039908320CA8FFF789FA0CA81DF05EFBC8
:102BF0006B4603909A890B4BE618174B9A422FD9D4
:102C0000FF221649D200300024F0C8FB0122200028
:102C1000110003F017FE0CA84CE7C0469BBB020056
:102C2000381F000074240000C8BB0200F4BB02007F
:102C30004DBC020067BC02006FBC0200EF24030021
:102C400078BC0200C9BA020095BC020099BC02001F
:102C5000AFBC0200B5BC0200F7070000BDBC02001B
:102C6000484B2800E1180AF0D3FC6B4629789B8971
:102C7000454A03932B69002904D16978434A002906
:102C800000D0434A00924349039A300024F086FB67
:102C900001222000110003F0D5FDAA783E4B002A46
:102CA00000D03E4B039A3E49300024F077FB0122CE
:102CB0002000110003F0C6FDEA78374B002A00D04F
:102CC000364B039A3749300024F068FB012220007C
:102CD000110003F0B7FDFA883349300024F05EFBA1
:102CE00001222000110003F0ADFDBA882F49300009
:102CF00024F054FB01222000110003F0A3FD7A8987
:102D00002B49300024F04AFB01222000110003F07F
:102D100099FD3A892749300024F040FB0122200028
:102D2000110003F08FFDBA892349300024F036FBEF
:102D300001222000110003F085FD2500FA891F49BA
:102D4000300024F02BFB01222D35FF35110020002F
:102D500003F078FD2A007969200003F039FD2A008C
:102D60001749300024F01AFB01222000110003F063
:102D700069FD2A00B969200003F02AFD2A001149E3
:102D800041E7C046381F00007FBB020084BB020041
:102D900089BB0200D8BC020095BB020090BB0200B8
:102DA000FABC020023BD02004CBD020065BD02005A
:102DB00081BD020095BD0200ADBD0200BEBD020096
:102DC000D2BD0200E2BD020037B505006B4600200F
:102DD000DC1DD87125F092FA054B221A0549E81836
:102DE00024F0DCFA01222800110003F02BFD37BD8E
:102DF000742400001DB40200F0B58E68FFB004001A
:102E00000D00002E00D119E2414907A81CF014FF63
:102E100007A928001DF017F9060007A81CF0BDFE41
:102E2000002E00DA92E00121200005F0F3FF0126D8
:102E3000384B3949E01824F0E9FA0122200011004A
:102E400003F000FD07AF2100380003F061FB314BB8
:102E50007A78E518314B3249D2189200A2187B6873
:102E60005268280024F09AFA01222000110003F091
:102E7000E9FCBA682B49280024F090FA01222000CE
:102E8000110003F0DFFCFB7F002B00D1D9E11FAB69
:102E90000FAA2549280024F081FA01222000110000
:102EA00003F0D0FC2FAB1B78002B00D1CEE1AD227C
:102EB00004ABD2181D49280024F070FA012220002A
:102EC000110003F0BFFC1A4B1A49E218280024F045
:102ED00065FA01222000110003F0B4FC164B174ADA
:102EE000E35C002B00D0164A1649280024F056FA5D
:102EF00001222000110003F0A5FC002E05D00123C3
:102F000011491A00200003F023FD7FB0F0BDC04638
:102F1000C2B20200742400001DB30200D80B0000EE
:102F200030B3020054B302006EB30200A9B3020032
:102F30006D220000C9B30200382400004BBA020021
:102F400059C80200DAB30200FFB30200C24907A861
:102F50001CF072FE07A928001DF075F806B207A83C
:102F60001CF01BFE002E1CDBB21D290004A8FFF77D
:102F7000C5F804A81DF064F9B84907A81CF05CFE68
:102F800007A904A81DF01BF8060007A81CF005FE01
:102F9000002E00D134E10222B14BE25404A81CF00F
:102FA000FCFDB04907A81CF047FE07A928001DF04A
:102FB0004AF806B207A81CF0F0FD002E11DB320023
:102FC0002900083207A8FFF799F807A81DF06EF945
:102FD000A54B421F9A4201D8A44BE05007A81CF011
:102FE000DCFDA34907A81CF027FE07A928001DF057
:102FF0002AF806B207A81CF0D0FD002E13DB320021
:1030000007A809322900FFF779F807A81DF04EF943
:10301000042805D9954BE358834201D3954BE050E2
:1030200007A81CF0BAFD944907A81CF005FE07A9E3
:1030300028001DF008F807B207A81CF0AEFD002F0D
:103040007DDB8E4E07A831001CF0F6FDBA1D07A9E6
:1030500028001CF0E8FF070007A81CF09EFD3FB207
:10306000310007A81CF0E8FD7B1C1A0007A9280006
:1030700001931CF0D8FF03B207A802931CF08DFD4A
:10308000310007A81CF0D8FD029B07A95A1C280094
:103090001CF0C9FF070007A83FB21CF07EFD0137F6
:1030A000310007A81CF0C8FD3A0007A928001CF051
:1030B000BAFF03B207A803931CF06FFD07A8029B99
:1030C000019A29001CF0EAFF099E07A81CF065FD83
:1030D000002E13D0029B019A290007A81CF0DEFFE6
:1030E0008A21890100234022611807A81CF081FF72
:1030F00007A81CF052FD0122614BE254039B3A00E9
:10310000290007A81CF0CAFF099B07A801931CF01F
:1031100044FD8B239B01E618019B002B00D181E02D
:10312000039B3A00290007A81CF0B8FF07A800235A
:10313000402231001CF05DFF07A81CF02EFD514914
:1031400007A81CF079FD07A928001CF07CFF06B237
:1031500007A81CF022FD002E15DBF21D290007A890
:10316000FEF7CCFF099B052B0AD94749002307220C
:10317000611807A81CF03DFF8C2301229B01E2543B
:1031800007A81CF00AFD414907A81CF055FD07A936
:1031900028001CF058FF06B207A81CF0FEFC002E09
:1031A00028DB32002900083204A8FEF7A7FF3849BF
:1031B00007A81CF041FD07A904A81CF000FF0500AA
:1031C00007A81CF0EAFC0023002D0ED1314907A806
:1031D0001CF032FD07A904A81CF0F1FE050007A8A9
:1031E0001CF0DBFC0123002D22D02B4AA35404A8A1
:1031F0001CF0D3FC0021200005F00CFE002617E691
:10320000264907A81CF018FD07A904A81CF0D7FE42
:10321000060007A81CF0C1FC002E00D1BEE6104B32
:103220000122BAE640221E49300024F00FF986E759
:103230001A001C49200003F08BFBD8E71A4BC65438
:1032400000E61A49280024F0E1F826E6184928008B
:1032500024F0DCF832E6C046CCB20200BBB9020072
:1032600061220000D2B202000B0E000064220000B6
:10327000DAB2020068220000E3B20200E9B2020002
:103280007F220000EBB2020001230000F2B2020034
:103290004BBA020059C802003824000095BC020055
:1032A00066CB0200FAB202007424000088B3020068
:1032B000B3B3020070B50D0086B02E49040028009B
:1032C0001CF053FE0221061E39D12B4928001CF0A8
:1032D0004CFE3100002832D1284928001CF045FE60
:1032E000032100282BD1264903A81CF0A5FC03A923
:1032F00028001CF064FE060003A81CF04EFC002E03
:1033000022D0204968461CF097FC1F4903A81CF0F6
:1033100093FC03AA694628001CF0DEFE03A81CF0FB
:103320003CFC68461CF039FC28001CF0BFFF174B22
:10333000C218174B9A4201D8164BE05001212000C9
:1033400005F064FA06B070BD134928001CF00DFEAC
:1033500004210028F3D1114928001CF006FE0028A2
:1033600001D00521EBE701230D491A00200003F0ED
:10337000EFFAE7E746BA02004ABA02004FBA020083
:1033800057BA02005EBA020066CB0200003EFEFFA2
:10339000004E0C003C24000066BA02006DBA020028
:1033A00073BA020010B5024A022105F0A3FB10BD5A
:1033B00066CB02007FB5040025302600FF300D00EB
:1033C0000FF09EFF2D36FF3601003200200003F083
:1033D000FFF901222000110003F034FAAB68002B42
:1033E0000FD1200003F012FA00283AD0234B32000C
:1033F0002349E01823F0D2FF01222000110003F03E
:1034000021FA204928001CF0B0FD002818D0230024
:10341000CE331B78002B06D12000022105F0F6F9EF
:10342000C8201CF0EBFF184A0321200005F062FBC6
:10343000002805D0012315491A00200003F088FA5E
:1034400028001CF033FF00280ADD290001A81CF029
:1034500097FC01A9200003F0EFFC01A81CF09DFBE4
:103460007FBD012320001A00094903F071FA064AC2
:103470000321200005F03EFBC3E7C0467424000092
:10348000D3BA020002BB020066CB020008BB0200F6
:10349000DCBA020010B50A4A0421040005F02AFB38
:1034A000002805D0012307491A00200003F050FA34
:1034B000012305491A00200003F04AFA10BDC04656
:1034C00066CB0200F4BD020000BE0200F0B58B68BE
:1034D00085B004000D00002B00D196E06C4901A8D6
:1034E0001CF0AAFB01A928001CF0ADFD0026070076
:1034F00001A81CF052FBB74213DB0123654AA15C13
:103500004B40A354644AA018644AB34200D1644AB1
:10351000644923F043FF01222000110003F092F9D7
:103520000126614901A81CF087FB01A928001CF0B5
:103530008AFD070001A81CF030FB002F17DB0123D8
:103540005A49625C5A406254594AA15C4B40A354A8
:10355000514AA018514A002B00D1514A554923F035
:103560001DFF01222000110003F06CF901265249D1
:1035700001A81CF061FB01A928001CF064FD0700F4
:1035800001A81CF00AFB002F13DB01234B4AA15CAE
:103590004B40A354404AA018404A002B00D1404A57
:1035A000474923F0FBFE01222000110003F04AF9F5
:1035B0000126444901A81CF03FFB280001A91CF08A
:1035C00042FD050001A81CF0E8FA002D5DDB012397
:1035D0003D4AA15C4B40A3543C4A53712E4AA0186B
:1035E0002E4A002B00D12E4A394923F0D7FE012262
:1035F0002000110003F026F9912301229B01E254DF
:103600000021200005F006FC3DE0234B234AC518AD
:10361000204BC35C002B00D1214A2249280023F013
:10362000BDFE01222000110003F00CF9204B1B4AC3
:10363000E35C002B00D11A4A1E49280023F0AEFE9D
:1036400001222000110003F0FDF81C4B134AE35C3B
:10365000002B00D1124A1A49280023F09FFE0122B4
:103660002000110003F0EEF8174B0C4AE35C002B2E
:1036700000D10B4A1649280023F090FE01222000B9
:10368000110003F0DFF805B0F0BD002EB8D1FAE765
:103690001EBB0200122400007424000090BB020034
:1036A00095BB020026BB020057BA02003A1F000079
:1036B0001424000038BB02004FBB02001524000098
:1036C00056BB020066BB020013240000680A0020FB
:1036D0006EBB0200F8B505008B6804000E00CC3507
:1036E000002B12D0214930001CF03FFC071E1CD0DB
:1036F000012322002B7000232000CD3213700521FE
:1037000003224130FF3008F077FC194B194AE018CA
:103710002B78002B00D0184A184923F03FFE0122D5
:103720002000110003F08EF8F8BD154930001CF0A0
:103730001CFC0028E9D0230020002F70CD3319781D
:103740004130FF30002903D107331B78002B03D110
:10375000002301211A00D6E7012B02D10B000A0039
:10376000D1E70B000A000221CDE7C04646BA0200AD
:10377000742400004BBA020059C8020038C002008D
:103780004ABA02001FB50C0001A807491CF054FA00
:1037900001A92000FFF79EFF01A81CF0FEF90021FF
:1037A000200005F033F81FBD46BA0200F0B593685B
:1037B00089B0019000911400002B31D0364F05A83C
:1037C00039001CF039FA05A920001CF0F8FB00268E
:1037D000050005A81CF0E1F9B54223D0390002A884
:1037E0001CF02AFA2D4905A81CF026FA05AA02A900
:1037F00020001CF071FC05A81CF0CFF902A81CF0F9
:10380000CCF920001CF029FD210005A81CF0B8FA15
:1038100005AA00990198FFF7B5FF05A81CF0BDF9AE
:1038200009B0F0BD019B35015D19696805A81CF060
:1038300003FA05A920001CF0C2FB070005A81CF034
:10384000ACF9002F1ED0696802A81CF0F5F91349E5
:1038500005A81CF0F1F905AA02A920001CF03CFC07
:1038600005A81CF09AF902A81CF097F920001CF09A
:10387000F4FC210005A8ED681CF082FA05A9009867
:10388000A847CAE701361C2ECCD1012304491A00EF
:10389000009803F05DF8C3E747C0020066CB020062
:1038A0004AC00200F0B50C002C4E89B001903100E6
:1038B00005A81CF0C1F9002205A920001CF0B3FBEB
:1038C000050005A82DB21CF068F90135310005A8E6
:1038D0001CF0B2F92A0005A920001CF0A4FB07B2D5
:1038E00005A81CF05AF9310005A81CF0A5F97A1CAE
:1038F00005A920001CF097FB009005A81CF04DF9CD
:10390000310005A81CF098F96B4600269E5F05A9BA
:103910000136320020001CF086FB009005A81CF048
:103920003CF92A003B00210002A81CF0B7FB6B46C3
:10393000029D00229B5E2100320005A81CF0AEFB18
:10394000059A2900019805F0EDF805A81CF025F965
:1039500002A81CF022F909B0F0BDC046E9B202008D
:103960000023F0B589B001938B6804000D00002B93
:1039700067D0524905A81CF05FF905A928001CF082
:1039800062FB06B205A81CF008F9002E14DB320019
:1039900029000A3205A8FEF7B1FB05A81CF086FC39
:1039A000474B421F9A4200D972E0464BE050012338
:1039B000019305A81CF0F1F8434905A81CF03CF957
:1039C00005A928001CF03FFB06B205A81CF0E5F88D
:1039D000002E36DB08363200290002A8FEF78EFBE7
:1039E00002A81CF063FC3949070005A81CF024F963
:1039F000320005A928001CF016FB06B205A81CF031
:103A0000CCF8002E4BDB2900721C05A8FEF776FBD4
:103A100005A81CF04BFC45B205A81CF0BEF8FBB293
:103A2000172B3FD8EBB2172B3CD87FB2BD4239D011
:103A3000274BE754274BE5540123019302A81CF0C0
:103A4000ACF8254B2549E5181E4B2800E25823F019
:103A5000A5FC01222000110002F0F4FE1C4BE256EE
:103A6000002A03DB1B4BE356002B22DA1C492800FB
:103A700023F0CCFC01222000110002F0E3FE019BA8
:103A8000002B03D00021200005F0C4F909B0F0BDDF
:103A9000012314491A00200002F05AFF89E701258A
:103AA0006D42BCE7012310491A00200002F050FFCC
:103AB000C4E70E49280023F071FCDBE731B40200B3
:103AC0000B0E00003024000053B40200C9BA0200FB
:103AD0003424000035240000742400007EB4020069
:103AE00099B402003BB402005BB40200B6B4020019
:103AF000F0B54C4BFBB0C7188B6804000D00002BD1
:103B000061D0494903A81CF097F803A928001CF0CC
:103B10009AFA06B203A81CF040F8002E1FDB063606
:103B2000424903A81CF088F8320003A928001CF0C1
:103B30007AFA32000300290068461CF0AFFA03A8A5
:103B40001CF02BF8029B3F2B58D839490023402208
:103B5000611868461CF04DFA68461CF01EF835499D
:103B600003A81CF069F803A928001CF06CFA06B23F
:103B700003A81CF012F8002E1DDB06362B4903A803
:103B80001CF05AF8320003A928001CF04CFA32004D
:103B90000300290068461CF081FA03A81BF0FDFF12
:103BA00068461CF083FB80B2002831D0224BE052E3
:103BB00068461BF0F2FF912301229B01E254002191
:103BC000200005F027F9210003A802F0A1FC2DAA8E
:103BD0001A49380023F0E2FB01222000110002F014
:103BE00031FE3DAB1A881649380023F0D7FB01227D
:103BF0002000110002F026FE7BB0F0BD1149380014
:103C000023F004FC01222000110002F01BFEA3E7B8
:103C10000D49380023F0FAFB01222000110002F0C8
:103C200011FEC5E774240000BDB60200C9BA020047
:103C300008230000EFB602004823000014B702007A
:103C400022B70200C3B60200F5B60200F0B54E4B33
:103C5000FBB0C7188B6804000D00002B61D04B49E6
:103C600003A81BF0E9FF03A928001CF0ECF906B239
:103C700003A81BF092FF002E1FDB0636444903A861
:103C80001BF0DAFF320003A928001CF0CCF9320047
:103C90000300290068461CF001FA03A81BF07DFF11
:103CA000029B3F2B5BD83B490023402261186846AA
:103CB0001CF09FF968461BF070FF374903A81BF002
:103CC000BBFF03A928001CF0BEF906B203A81BF035
:103CD00064FF002E1DDB06362D4903A81BF0ACFF48
:103CE000320003A928001CF09EF9320003002900CD
:103CF00068461CF0D3F903A81BF04FFF68461CF080
:103D0000D5FA80B2002834D0244BE05268461BF02C
:103D100044FF912301229B01E2540021200005F081
:103D200079F8210003A802F0F3FBF6221C496A444B
:103D3000380023F033FB01222000110002F082FD45
:103D400085235B006B449A8D1649380023F026FBCF
:103D500001222000110002F075FD7BB0F0BD124978
:103D6000380023F053FB01222000110002F06AFD0D
:103D7000A0E70E49380023F049FB01222000110082
:103D800002F060FDC2E7C04674240000BDB6020028
:103D9000C9BA02004A230000EFB602008A230000DD
:103DA0001BB6020028B60200D2B50200FDB5020023
:103DB000012210B5024B0349C25406F00FF910BDA1
:103DC0002C2F0000B80B000070B5AA258B6886B0B8
:103DD00004000E00FF35002B20D0174968461BF069
:103DE0002BFF164903A81BF027FF694603AA3000E2
:103DF0001CF072F903A81BF0D0FE68461BF0CDFE44
:103E000030001CF02AFA30001CF050FA0C4BC0B203
:103E100060550021E054200004F0FCFF094B625D76
:103E2000E018094923F0BAFA01222000110002F03B
:103E300009FD06B070BDC046110B030066CB020041
:103E4000392400007424000095BA02007FB58B6805
:103E500006000C00002B31D02E4901A81BF0ECFE0F
:103E600001A920001CF0EFF8050001A81BF095FE49
:103E70002B0405D40021284A300007F07BF91DE00F
:103E8000264901A81BF0D8FE01A920001CF0DBF890
:103E900005B201A81BF081FE002D10DB2A1D2100B8
:103EA00001A8FEF72BF901A81CF0D7F90121019A0E
:103EB000300007F05FF901A81BF06FFE7FBD1849C5
:103EC00001A81BF0B9FE01A920001CF0BCF805B246
:103ED00001A81BF062FE002D0ADBAA1D210001A82B
:103EE000FEF70CF901A81CF0B8F9019A0221DFE7EE
:103EF0000C4901A81BF0A0FE200001A91CF0A3F8AA
:103F0000040001A81BF049FE2304D7D4024A032170
:103F1000B2E7C046A8BA020066CB0200ACBA020003
:103F2000B0BA0200B6BA020010B5054C054920002F
:103F30001BF082FE044A054920001DF024FB10BD41
:103F4000EC020020BCB20200000000209BFB01003C
:103F5000F0B50C00B44EA9B03100050017A81BF055
:103F60006BFE17A920001CF06EF8070017A81BF0C5
:103F700014FE002F00DADCE031000CA81BF05CFE20
:103F8000AA4917A81BF058FE17AA0CA920001CF07C
:103F9000A3F817A81BF001FE0CA81BF0FEFD2000E3
:103FA0001CF05BF92B00D5331B780293002B07D153
:103FB00001331A009E49280002F0CAFC29B0F0BD66
:103FC0009C4B1968002905D09B489C4B9C4A28189B
:103FD00012F016FB9B4E17A831001BF02DFE17A9FF
:103FE00020001CF030F8070017A81BF0D6FD0123B5
:103FF0000393002F17DB31000CA81BF01DFE8B492B
:1040000017A81BF019FE17AA0CA920001CF064F8D1
:1040100017A81BF0C2FD0CA81BF0BFFD20001CF070
:104020001CF900230393884E17A831001BF004FEEF
:1040300017A920001CF007F8070017A81BF0ADFD1A
:1040400001230493002F17DB31000CA81BF0F4FDB3
:10405000764917A81BF0F0FD17AA0CA920001CF048
:104060003BF817A81BF099FD0CA81BF096FD20004B
:104070001CF0F3F800230493744E17A831001BF0D2
:10408000DBFD17A920001BF0DEFF070017A81BF0BF
:1040900084FD002F15DB31000CA81BF0CDFD63491A
:1040A00017A81BF0C9FD17AA0CA920001CF014F8D2
:1040B00017A81BF072FD0CA81BF06FFD20001CF070
:1040C000CCF8A368002B5FD00027A368002B6BD02F
:1040D0005F490CA81BF0B0FD0CA920001BF0B3FF3A
:1040E00006B20CA81BF059FD504909A81BF0A4FD0D
:1040F000002E21DC210009A81BF032FEA26800215D
:1041000020001CF07DF82E00C936FF3630000999DA
:1041100018F000F92C234343F6180436F27F002AE6
:1041200020D017ABD855013709A8FFB21BF035FDD9
:10413000CBE7002302934DE73300002221000CA8B7
:104140001BF0ACFF0CA909A81BF024FE0CA81BF067
:1041500024FD2000721C00211CF052F820001CF0ED
:104160007CF8D0E7EB183B4AD133FF33A8183A4923
:104170001A6823F013F901222800110002F062FBF3
:1041800009A81BF00AFD19E72A001F00EC32FF32D4
:1041900017A91078002802D0CB550137FFB20133A0
:1041A000DBB22C32432BF4D12A4BF022EC181F49FE
:1041B000200023F04BF9039B002B04D0274A284909
:1041C000200023F0EBF8049B002B0CD0200023F000
:1041D00025F98021234B8900091A0093224A2300E4
:1041E000200023F0A9F80026F3B29F4240D92C22E8
:1041F00017ABF35C1D495343EB18D133FF331B68F6
:104200002200200023F0CAF87B1EB3420ADD200002
:1042100023F004F980239B00191A114A230020007F
:1042200023F08AF80136DFE7BAB9020066CB020054
:10423000BEB90200E04600204C2800000242000007
:10424000D8B90200E4B90200ECB90200F2B90200E8
:10425000F8B9020074240000FAB902001DBA020085
:1042600024BA020028BA020022BA0200CEBA020022
:10427000029B002B04D0614B2100E8181BF0FEFAD2
:1042800001222800110002F0DDFA1CF081F80590EF
:104290005B4819F039FE002800D08AE01CF078F85D
:1042A00058490790200023F0B1F8039B002B11D050
:1042B000280002F0ABFA200023F0B0F880239B0026
:1042C000191A2B002D33FF3300934F4A230020008F
:1042D00023F032F8049B002B13D0200023F09EF82B
:1042E00006001CF055F880239B00991B059B474A4C
:1042F000C01A00902300200023F01EF81CF048F89C
:10430000059000260696F3B29F423ED92C22290042
:1043100017ABF35CC9315343FF31C9180CA8FEF742
:104320007FFA06AB9B7E0D3B112B02D80122384B46
:10433000EA540CA9280004F073FF06AB3E229B5EF2
:104340002000002B14D123F069F880239B00191A58
:10435000109B304A00932000230022F0EDFF069BC3
:104360000133DBB2069310A81BF017FC0136CAE735
:1043700023F054F880239B00191A274B274A0093F7
:104380002000230022F0D8FFEDE7069B9F4200D0DB
:104390007EE7029B002B04D0184B2100E8181BF08D
:1043A0006DFA01222800110002F04CFA079B0593D8
:1043B0006EE70024E3B29F4217D92C22290017ABE5
:1043C000E35CC93153430CAEFF31C9183000FEF72E
:1043D00027FAB3780D3B112B02D800220C4BEA547C
:1043E00010A81BF0DAFB0134E4E7029B002B00D19C
:1043F000E4E50B4BE81812F0EFF8DFE53C2800008D
:10440000284C002066CB020022BA020034BA020017
:10441000621E00003BBA020041BA0200CEBA02009E
:104420004C280000F0B50D008FB0854904000BA8A2
:104430001BF002FC0BA928001BF005FE03B20BA821
:1044400004931BF0AAFBAB68002B00D118E1049B7E
:10445000002B00DB14E17B490BA81BF0EDFB0BA943
:1044600028001BF0F0FD06B20BA81BF096FB002EF7
:104470002EDB32002900083208A8FDF73FFE724902
:104480000BA81BF0D9FB0BA908A81BF098FD060090
:104490000BA81BF082FB002E04D06C4B0121E0180E
:1044A00007F074F96A490BA81BF0C6FB0BA908A812
:1044B0001BF085FD06000BA81BF06FFB002E04D03F
:1044C000624B0021E01807F061F908A81BF065FBBA
:1044D00060490BA81BF0B0FB0BA928001BF0B3FD33
:1044E00006B20BA81BF059FB002E2DDB721D290014
:1044F00008A8FDF703FE54490BA81BF09DFB0BA970
:1045000008A81BF05CFD06000BA81BF046FB002E64
:1045100004D04E4B0121E01807F07BF94C490BA861
:104520001BF08AFB0BA908A81BF049FD06000BA88D
:104530001BF033FB002E04D0444B0021E01807F0A1
:1045400068F908A81BF029FB43490BA81BF074FB72
:104550000BA928001BF077FD06B20BA81BF01DFB72
:10456000002E33DB3200290008320BA8FDF7C6FD10
:104570000BA81BF072FE0BA81BF098FE0200374B35
:10458000C93AE618364B9A4200D975E1354F0021F9
:10459000E051200004F03EFCE2593349300022F0A3
:1045A000FDFE01222000110002F04CF92F4819F005
:1045B000ABFC0028FAD0200002F0E4FC012220002D
:1045C000110002F03FF90BA81BF0E7FA28490BA8ED
:1045D0001BF032FB0BA928001BF035FD06B20BA81F
:1045E0001BF0DBFA002E00DA3AE12900F21D0BA8DD
:1045F000FDF784FD0BA81BF030FE0BA81BF056FE48
:10460000164BE518E023FF33984200D939E1194EE3
:104610000021A053200004F0FDFB1BF0B9FE164B57
:104620001649E050A25B280022F0B8FE01222000CB
:10463000110002F007F90BA81BF0AFFA10E1C04619
:1046400023BE020029BE020059C80200D82E000075
:104650004BBA020080BF020085BF02007424000034
:10466000564D00001C2400008DBF0200284C002085
:1046700066BA02002C24000078260000FBBF02006E
:10468000824BE25A824BE518002A00D0EAE08149C9
:10469000280022F0BBFE01222000110002F0D2F817
:1046A0007D4BE6187D4BE35C002B00D1DFE07C4BBB
:1046B0003100E718380006F01FFF7A4B0790E358E7
:1046C0003800069306F08EFE071C300006F006FF49
:1046D000BC231B01C01880000359381C029321F031
:1046E000EBFB069B00900191079A6F49280022F08E
:1046F00055FE01222000110002F0A4F8300006F05F
:1047000045FF6A4B6A49C01880000259280022F010
:1047100045FE01222000110002F094F8049B002BBA
:1047200000DA9DE001213000494207F072F8614F44
:104730006149C01980000259280022F02FFE012291
:104740002000110002F07EF801213000494207F0FC
:104750001DF8C019800002595849280022F01EFE99
:1047600001222000110002F06DF8012130004942C1
:1047700007F029F8C019800002595149280022F099
:104780000DFE01222000110002F05CF80121300032
:10479000494206F0ADFF4B490200280022F0FEFD21
:1047A00001222000110002F04DF8012130004942A1
:1047B00006F066FF44490200280022F0EFFD0122C6
:1047C0002000110002F03EF801213000494207F0BC
:1047D0004FF83E490200280022F0E0FD01222000AF
:1047E000110002F02FF801213000494207F070F863
:1047F00037490200280022F0D1FD012220001100DB
:1048000002F020F801213000494207F0B9F821F008
:1048100053FB0B0002002F49280022F0BFFD0122AC
:104820002000110002F00EF801213000494207F08B
:10483000A7F821F041FB04900591300007F028F91A
:10484000254B002800D0254B00932549049A059B51
:10485000280022F0A3FD01222000110001F0F2FF48
:104860000FB0F0BD1F49280022F098FD13E71E4944
:10487000280022F0CBFD3CE71C49300022F0C6FDA9
:104880009CE61B49280022F0C1FDCFE62C24000045
:104890007424000031BE0200D82E0000CA2E000091
:1048A000342D00001C24000054BE0200C40B000084
:1048B0008EBE0200C80B000096BE02009EBE020023
:1048C000A9BE0200B4BE0200D1BE0200ECBE0200CE
:1048D00015BF020043BF020095BB020090BB02005F
:1048E00063BF020040BE020079BE0200E4BF0200C6
:1048F00017C00200F7B5002301240193050023002F
:1049000022002449280002F023F800230126009306
:10491000019BF1B2204F002B00D0204F380012F045
:10492000BAFB380012F0C3FB1D4BEF18002823D14F
:1049300032001C49380022F031FD220021002800FD
:1049400001F080FF009B0133DBB2009301367F2E24
:10495000DED1009A1449380022F020FD2200210007
:10496000280001F06FFF019B012B00D1F7BD0194DE
:10497000230022000D49C5E70428E7D132000C4985
:10498000380022F00BFD22002100280001F05AFF20
:10499000DCE7C0461EB50200E846002014080020EF
:1049A000742400007BB50200C1B502004BB50200C3
:1049B000A0B502000120704770B505002C00083436
:1049C000200012F05FFE002807D0200012F06FFEDA
:1049D0000100034816F09CFCF0E7012070BDC046C2
:1049E000000600200022083010B50400110015F068
:1049F000C8FB0249200015F0B7FE10BD4C040000B2
:104A0000F0B506008DB00D0001795748140002F092
:104A1000ABFA071E74D02800263806286CD835005B
:104A200008351EF023FA044B4B707D8B97004F49DD
:104A3000280016F051F8230032330193002839D0B2
:104A40004A49280016F06AF8002833D001235B4257
:104A50000B930023454928000A93099315F070FF32
:104A6000434B4249C0180890280015F08BFF0138CD
:104A700007903E49280015F0A7FF3C490690280002
:104A800015F0C4FF39490590280015F0E1FF3749BA
:104A90000490280015F0FEFF0123019A0390137083
:104AA00003A821F06BFD60633049280016F05AF826
:104AB000207021E00023019A1370F5E701232B49B0
:104AC0006370280016F0B3F81FF0CEFB21F0F4F964
:104AD0000022284B1FF06EFFA060E16023492800F0
:104AE00016F084F81FF0C0FB21F0E6F90022214BFC
:104AF0001FF060FF206161611BF04AFCFC36B06171
:104B000038000DB0F0BD012318492376280016F0B7
:104B1000B0F81FF0A9FB18491EF0B8FEE061EBE702
:104B20000122631CDA771149280016F0C4F81FF03F
:104B30009BFB11491EF0AAFE6062DDE72300012203
:104B400028331A700949280016F0D7F81FF0D6FB51
:104B5000E062D1E72300012230331A7003492800B4
:104B600016F022F83134A3E7140800204C040000AA
:104B700094F8FFFFD012634100007A44F0B50600BC
:104B80008DB00F0001796B48140002F0EDF901902F
:104B9000002800D1BEE01BF0FBFBFC36F369C01A15
:104BA000F423FF33984200D8B4E02200624D323241
:104BB00048352B781370002B24D001235B420B93D4
:104BC00000235E480A93099316F0E4F95C4BC01881
:104BD00008905A4816F0EAF901380790574816F03D
:104BE000F1F90690280016F0F9F90590280016F062
:104BF00001FA0490280016F00BFA039003A821F0A4
:104C0000BDFC606300224F4903A88B1D1031DA7789
:104C10001BF012F803A81BF049FBC0B2207000285B
:104C20000AD149498B1DD877103103A81BF0BAF877
:104C300003A81BF03BFB20703F4D2B786370002BCB
:104C40005FD0280016F03AF9A060E160280016F065
:104C500059F9206161612B0078331B782376002B92
:104C60005BD02B000022793304351A70E86F21F0F5
:104C7000B7F80022354B1FF09DFE21F06FF9E0617F
:104C80002D4B611C1A0058321278CA77002A47D07F
:104C90001A0000215932186E117021F0A1F82C4A27
:104CA0002C4B20F091FA0022284B1FF083FE21F0BC
:104CB00055F96062204D22002B0098331B78283272
:104CC0001370002B2FD02B00002299331A702B0069
:104CD000A03318681FF0C8FAE0622B002200883366
:104CE0001B7830321370002B20D02B000022893328
:104CF00090351A702B68313423701BF049FBF0613A
:104D000005E03B00273B012BA5D80023019303A816
:104D10001AF043FF01980DB0F0BD292FB0D1F4E790
:104D20002A2FC7D1F1E72B2FD7D1EEE72C2FE4D1D3
:104D3000EBE7C046140800200006002038060020DB
:104D400094F8FFFF8C030020180500200000594054
:104D5000CF16AD2F5476E03F482310B50370054BB6
:104D600004008360002304490373103016F09DFB98
:104D7000200010BD3333534014080020037810B5D1
:104D80000400002B05D0406803681B689847002387
:104D90002370012010BD0000F0B50E00040085B0A6
:104DA00017001BF0F5FA33002500FC33DB6A194AC3
:104DB000C01A0835904204D8002B02D0002363703B
:104DC0001EE060682A00036826215B689847002877
:104DD00016D0237A002B13D023003A331B78002BF4
:104DE0000ED06378052B13D90A22E16B01A81AF0C3
:104DF00065FF01A9300002F01FF801A81AF0CDFEEE
:104E000060682A00036839005B68984705B0F0BD08
:104E10000133D4E780EE360010B5406803689B6824
:104E2000984710BD10B50248FFF7F6FF10BDC04609
:104E3000C003002070B5074D04000179280002F07E
:104E400093F8002805D02000034A0830290012F00A
:104E5000BDFB70BD14080020A086010070B5184D80
:104E600004000179280002F07FF8002802D1002513
:104E7000280070BD083429004222200015F0F6FCFD
:104E8000051EF4D00F4A0021200015F0DAFB0D4A70
:104E90000021200015F0DCFB0A4A0121200015F05A
:104EA000C9FB084A0421200015F010FD054A012124
:104EB000200015F053FC0349200015F0D1FBD7E783
:104EC000140800204C04000070B5050009480E00CD
:104ED00002F04AF8041E09D02B7B002B08D12800D1
:104EE0003100103016F0E8FA01232B73200070BD5A
:104EF0001C00FBE714080020F7B5050000910178BD
:104F00002E4802F031F80190002829D02C001034EE
:104F10000021200016F0D7FA0099200016F0D6FAEA
:104F2000274B984247D8274B98421BD98021200015
:104F3000890016F0C8FA244E244F0099200016F07C
:104F4000C5FA1FF0DBF9E02189051EF077FE20F09D
:104F5000B3FF32003B0020F037F920F0FFFF68601C
:104F60000198FEBD1A4B984207D980212000C90044
:104F700016F0A9FA144E174FDFE7174B984207D9DE
:104F8000C0212000C90016F09EFA0F4E134FD4E73F
:104F9000134B984207D980212000090116F093FA9B
:104FA000094E104FC9E7A0212000090116F08BFA25
:104FB000054E0D4FC1E70D4E0D4FC2E714080020FE
:104FC00054550000AA2A0000FCA9F1D24D621040FD
:104FD000551500004D620040AA0A00004D62F03FE6
:104FE000550500004D62E03F4D62D03FFA7E6ABC3D
:104FF00074931840F8B504000E0001783648150087
:1050000001F0B2FF002801D10020F8BD207D00286A
:105010000FD0637BAB4201D10123A373E37BAB428F
:1050200001D101232374637CAB42EED10123A3742D
:10503000EBE72700E37C1837002B03D02749380023
:1050400016F06EFDFA2040001BF0D8F9002322492B
:105050001A00380016F0BEFF0028D5D0EC239B00C4
:10506000F318DB7F002B20D0EB239B00F1183000DE
:1050700004F0D6F8002818D0EF239B00F0181BF09E
:1050800028F917491EF0DAFD1EF01EF9F922154B1A
:1050900081B2CB189BB25200934206D8380016F06A
:1050A00073FF002801D001232373380016F086FF18
:1050B0000028A9D0637BAB4201D10123A373E37B1A
:1050C000AB4201D101232374627C0123AA4200D1A7
:1050D000A374237599E7C04614080020284C0020CB
:1050E0000000204143FDFFFF70B5437B04008B426D
:1050F00001D100238373E37B8B4201D1002323740E
:10510000637C8B4201D10023A374A37B012B01D1CB
:1051100000200DE0237C0020012B09D0A37C05009A
:10512000012B05D02000183016F060FD01202575F8
:1051300070BD10B504003E2909D03F290CD03D298F
:105140000FD1183016F03CFE6080012010BD1830E1
:1051500016F04FFE6060F8E7183016F03FFEA060D2
:10516000F3E70020F2E7000037B58B1E0B4A18303A
:105170009BB20400934201D816F025FF6B468C21A8
:105180009D1D2A00C901200016F03EFE200016F0E9
:105190002DFD200016F012FF28883EBD06070000F6
:1051A000183010B50400012902D116F0BDFE01E04F
:1051B0000029FAD0200016F0E9FC10BD0B0037B52D
:1051C000C822913BFF3B18309BB20D000400D20077
:1051D000934206D8002116F0A7FE2900200016F001
:1051E000ADFE6B469D1D00232A00034920002B8045
:1051F00016F00AFE28883EBD04520000F0B50400F7
:10520000060085B002AB9D1D18340F1C0192164993
:105210002A00200016F0F8FD3E213000FFF789FF3C
:105220007668391C301C1EF01BF8002817D0391C7A
:10523000301C1EF035FE011C200016F093FE2A00E3
:105240000949200016F0E0FD288820F0C9FD002261
:10525000064B1FF0AFFB20F081FE05B0F0BD019BB7
:10526000002BECD00021E7E7035400000000594078
:10527000F0B504008FB01D002D2A00D290E13C2A29
:1052800000D892E13F2A00D98AE1C94E0BA831002B
:105290001AF0D2FC0BA928001AF091FE07000BA807
:1052A0001AF07BFC002F2FD0310008A81AF0C4FCA4
:1052B000C0490BA81AF0C0FC0BAA08A928001AF0D4
:1052C0000BFF0BA81AF069FC08A81AF066FC28006E
:1052D0001AF0C3FF28001AF0E9FFB74D81B2280089
:1052E000FFF742FFB54905A81AF0B3FD05A90BA8C1
:1052F0001AF046FD00212800FFF736FF01000A22C0
:1053000008A81AF0C9FC59E0AD4E0BA831001AF0FC
:1053100093FC0BA928001AF052FE07000BA81AF004
:105320003CFC002F5ED0310008A81AF085FCA14992
:105330000BA81AF081FC0BAA08A928001AF0CCFED1
:105340000BA81AF02AFC08A81AF027FC28001AF06B
:1053500084FF9C490BA81AF06FFC0BA928001AF0D7
:105360002EFE07000BA81AF018FC934E0121002F07
:105370000ED195490BA81AF05FFC28000BA91AF072
:105380001EFE05000BA81AF008FC002D03D0390002
:105390003000FFF705FF8D4905A81AF05AFD05A951
:1053A0000BA81AF0EDFC3000183016F0EFFB854921
:1053B000002800D1844908A81AF03EFC08A90BA8CF
:1053C0001AF0ADFD010020001AF0DAFC08A81AF06E
:1053D000E4FB0BA81AF0E1FB05A81AF0DEFB2000A5
:1053E0000FB0F0BD7A4E0BA831001AF025FC0BA9C6
:1053F00028001AF0E4FD07000BA81AF0CEFB002FDE
:1054000026D0310008A81AF017FC6A490BA81AF038
:1054100013FC0BAA08A928001AF05EFE0BA81AF0CC
:10542000BCFB08A81AF0B9FB28001AF016FF2800E8
:105430001AF03CFF0500674905A81AF00AFD05A906
:105440000BA81AF09DFCA9B25B48FFF7B7FE55E721
:10545000614E0BA831001AF0EFFB0BA928001AF0DF
:10546000AEFD07000BA81AF098FB002F78D0310092
:1054700008A81AF0E1FB4F490BA81AF0DDFB0BAAB4
:1054800008A928001AF028FE0BA81AF086FB08A825
:105490001AF083FB28001AF0E0FE4B490BA81AF023
:1054A000CBFB0BA928001AF08AFD06000BA81AF006
:1054B00074FB002E52D1AB68002B4AD0310028007B
:1054C0001AF093FD3038C0B2092842D828001AF0EB
:1054D00000FF00270190384D3E212800FFF729FEEC
:1054E0003E4902A81AF0B5FC02A908A81AF048FC27
:1054F0000222696805A81AF060FC05A908A81AF03C
:105500000EFD374E31001AF025FD36491AF022FD06
:105510003A00009001992800FFF770FE0222011C5A
:105520000BA81AF04AFC0BA900981AF0F8FC3100FD
:105530001AF010FD010020001AF022FC0BA81AF04E
:105540002CFB05A81AF029FB08A81AF026FB02A8D4
:1055500043E7254920001AF07CFC40E70127BAE721
:1055600022490BA81AF068FB28000BA91AF027FDA6
:1055700005000BA81AF011FB002D0FD01C4905A83F
:105580001AF067FC05A90BA81AF0FAFB0A4B194997
:105590001B7B002B00D00EE717490CE71749D9E712
:1055A000174920001AF048FB19E71649F9E7C046E9
:1055B000DFB8020066CB0200800500200BC20200AB
:1055C00020C2020059C802004BBA020028C20200E1
:1055D00040C202004AC2020068C2020094C2020035
:1055E000AAC20200ADC2020070C2020066C302007D
:1055F000C4C2020000C2020005C20200E9C20200E9
:105600006FC30200B6C3020030B50024C1B00B0066
:10561000A14211D04478002C11D0802218005200F1
:10562000694616F009FD074D074928001AF00AF9E6
:10563000694628001AF022F9200041B030BD01244B
:10564000FAE7C046284C0020DAC30200F8B504008F
:105650000A200D001AF0D2FE154E2178300001F01C
:1056600083FC071E22D0A37D002B10D0237CAB42ED
:1056700001D101236374A37CAB4201D10123E37404
:10568000237DAB4201D1012363753800F8BD3100A1
:1056900026001836300016F08AFD300016F089FD1D
:1056A00001002000FFF7B0FF0028DFD00027ECE763
:1056B000140800200B00223B10B50020202B16D828
:1056C00018001DF0D3FB1111151517171717171711
:1056D000171B1B1B1B2020202022222222242424D3
:1056E000242626262A2A2A000E4808F045FA10BD4C
:1056F0000D48FAE70D48FFF741FBF8E70C4B002295
:1057000001201A73F3E70B4BF9E70B4BF7E70B4B51
:10571000F5E70B48FFF7E8FCE9E70A48FFF796FFD3
:10572000E5E7C046D0050020E8050020C0030020C2
:1057300004030020200300203C0300205803002025
:1057400080050020B4050020F7B56B4601AE9D1C16
:105750009F1D3B00040032002900183016F044FD64
:1057600001002000FFF750FF002398421FD10023C3
:10577000F85E20F035FB0F4B00221FF01BF920F0E4
:10578000EDFB642160600023F05E1DF00DFC00B2B3
:105790001EF06AFDA0600023E85E20F021FB064BAE
:1057A00000221FF007F920F0D9FB0123E060180068
:1057B000FEBDC046000069400000144070B50023E3
:1057C0001400907886B022381500D3841034202835
:1057D00000D98AE01DF04AFB111E27292B384F59AA
:1057E000636D77819194979A9C9EA0A2A4A6A8AA83
:1057F000ACAEB0B2BFC9D3D9DF006C4E300008F0F8
:10580000A0FA002800D170E00222316903A81AF042
:10581000D4FA27E0654E300008F093FA002864D0EF
:1058200002227169F2E7624EE8E7614EF3E7614EEA
:1058300026223000FFF7B0FA002856D0317A0A222B
:1058400003A81AF018FA0DE05A4E27223000FFF78D
:10585000A3FA002849D032697369062103A8009190
:105860001AF0C9FA03A920001AF094FA03A81AF052
:1058700094F906B070BD4F4E28223000FFF78CFA25
:10588000002832D0B269F369E7E74A4E2922300096
:10589000FFF782FA002828D00222716AB6E7454E47
:1058A0002A223000FFF778FA00281ED00222F16A7F
:1058B000ACE7404E2B223000FFF76EFA002814D0E0
:1058C0000222716BA2E73B4E2C223000FFF764FAF4
:1058D00000280AD039363178B1E7374E0021300040
:1058E000FFF70AFB062200283DD1344920001AF0B8
:1058F00059FA01235B42EB84BBE72F4E0121EEE70F
:105900002D4E0221EBE72C4E0321E8E72C4EE5E774
:105910002B4EF3E72A4EF4E7294EF5E7294EDDE753
:10592000284EEBE7274EECE7264EEDE7264ED5E76F
:10593000254EE3E7244EE4E7234EE5E7234E3D21E1
:105940003000FFF7F6FB0028CFD071880A2203A8A9
:105950001AF0A2F986E71D4E3E213000FFF7E9FB61
:105960000028C2D00222716850E7184E3F21300053
:10597000FFF7DFFB0028B8D00222B16846E7144EDB
:1059800040213000FFF7E0FEEAE7114E41213000F0
:10599000FFF7DAFEEEE70E4E42213000FFF7D4FEAD
:1059A0000028A2D00222F16830E7C046D0050020CE
:1059B000E8050020C00300200403002053D90200A2
:1059C000200300203C030020580300208005002015
:1059D000B4050020F8B5494C494920001AF02CF9CB
:1059E000484A494920001BF0CEFD484C4422210082
:1059F000474808F0B3F8210000244522454808F044
:105A0000ADF8454B10215A1CD4771A002832147077
:105A10001A00303214701A00383214701A003A32F8
:105A200014703E4A1C705C701C725C72DC633C4BF0
:105A300008321A6002221A713A4A1C633A4B083241
:105A40001A6019711900FC33DC61384B384D08338A
:105A50002B604223FF314C7336482B7111F04EFE00
:105A6000FC353548AC61FFF777F93448FFF774F936
:105A70003348FFF771F93348FFF76EF9324D0627C7
:105A80002800002661233A0030490D302B706E60EB
:105A9000AE606C802C7320F082FC2800022218304B
:105AA000EC742C75EA8216F030F8294D5D2328003D
:105AB0002B70264B3A00D91910306C706E60AE60B6
:105AC000EE6020F06CFC28001830AC7516F06CFB12
:105AD00010222049204811F0F9FC204C200015F03C
:105AE0002FF93B0021001E4A1E4815F09BFC3B008D
:105AF0001D4A21001D4815F095FCF8BDF802002054
:105B0000BCB20200000000209BFB01001408002032
:105B1000D0050020E8050020C0030020E4C30200F7
:105B20004C050020F8C30200D80600200CC4020077
:105B300000040020080400200403002020030020AB
:105B40003C030020580300208005002061C00200B3
:105B5000B405002000C102007403002000060020EC
:105B60006DC002008C03002073C0020018050020E5
:105B700070B50A4C01790600200001F0F5F9051E08
:105B80000AD03179200011F086FA0121200011F0AD
:105B9000A0FB200011F08BFA280070BD1408002033
:105BA00070B50F4C05000179200001F0DDF90028E7
:105BB00015D02979200011F06EFA0021200011F093
:105BC00088FB200011F073FA29790122200011F0DE
:105BD0005CFA200011F0D6FB431E9841C0B270BDA4
:105BE0001408002070B504000078002815D10B4D72
:105BF0002800FFF733F9002803D0012365602370E4
:105C00000BE0074D2800FFF715F90028F5D1054DE9
:105C10002800FFF7C5FF0028EFD170BD0004002069
:105C2000D80600204C050020F0B5037C85B00700A5
:105C30000E001500002B0FD16C46264823702371EF
:105C400022004369016911F0BBFC3B0007CC07C38C
:105C500022681A6001233B742B00223B0020202B7A
:105C600016D818001DF002F9111116161818181878
:105C70001818181C1C1C1C21212121242424242731
:105C80002727272A2A2A30303000134808F03EF808
:105C900005B0F0BD1148F9E71148FFF7A3FFF7E79A
:105CA00048211048FFF710F9F2E749210E48F9E7BB
:105CB0004A210E48F6E74B210D48F3E72A00310050
:105CC0000C48FFF797F9E3E729000B48FFF7BEFC04
:105CD000DEE7C04674030020D0050020E805002060
:105CE000C003002004030020200300203C03002008
:105CF0005803002080050020B4050020F0B55B4F5C
:105D000085B00191017904003800150001F02CF9EB
:105D10000290002804D100230293029805B0F0BD40
:105D20001AF036FB236BC01AF423FF33984202D8D3
:105D30002B78002BF1D12179380011F0ACF9022138
:105D4000380011F0C6FA380011F0B1F92179282293
:105D5000380011F09AF91AF01BFB0600380011F018
:105D6000BEF9002807D11AF013FBFA23801B5B0051
:105D70009842F3D9CFE723002D33661D03933800F3
:105D800011F000FB039B307001369E42F7D12F00CB
:105D9000667932372E70237F3B70002B06D02100AE
:105DA000280004221D31343020F0F9FA002E00D1F1
:105DB0003E70A3796B70002B42D00822E11DA81819
:105DC00020F0EDFA2100280008220F31103020F0D9
:105DD000E6FAE37D2B76002B37D021002800042241
:105DE00018311C3020F0DBFAA31CDB7F6A1CD37750
:105DF000002B2ED02100280004222231243020F054
:105E0000CEFA2A00E31DDB7F28321370002B24D04A
:105E100021002800042227312C3020F0C0FA230072
:105E20002A002B331B7830321370002B19D023003B
:105E30002C331B7831352B701AF0AAFA20636CE7EB
:105E4000019B273B012BC4D865E7019B292BCBD1B4
:105E500061E7019B2A2BD4D15DE7019B2B2BDED17F
:105E600059E7019B2C2BE7D155E7C04614080020C9
:105E7000002070470300806C10B5002802D00FF09E
:105E800065F810BDD86C002802D00DF079FCF8E759
:105E900001204042F5E70300806C10B5002802D0D5
:105EA0000FF098F910BDD86C0028FBD00EF09AF9CD
:105EB000F8E703000020834206D01A7A7F3082433D
:105EC000002902D11A727E387047042002431A72E8
:105ED00019600338F8E70A21435E0200181E01D05A
:105EE0001B01D018704770B50D00041E0FD0C1689B
:105EF000A9420CD0002D06D0002904D0280021F0A2
:105F00007BFA002803D02000FFF7E5FFEDE7200033
:105F100070BD4A688B681032934204D201230B741F
:105F2000002318007047103B8B60002BF9D04268AB
:105F3000002A08D0991A09115181002243605A8120
:105F40001A72DA60EDE70360F7E70000F7B503784F
:105F500004000F002B2B1DD02D2B1CD1012601344A
:105F600023781A00303A092A02D92E2B00D0BFE03C
:105F700000200A255F4922781300303BDBB2092B51
:105F80000BD888421CD8DA436843824218D3C01821
:105F90000134F0E701340026E2E7002A10D13B7A11
:105FA0007F329343002E05D0753A13433B7238601D
:105FB0003000FEBD082213433B7238600126F7E72C
:105FC00000254D4B984205D90A2101351CF062FF8E
:105FD0006DB2F6E723781A00303A092A03D8013562
:105FE0006DB20134F6E72E2B0FD10A21434A01345A
:105FF0002378303BDBB2092B07D8904203D84843C3
:10600000013D18186DB20134F2E7202322789A433B
:106010000023452A3AD162782D2A1FD10234013358
:106020000193002321783039CAB2092A2AD80A22DA
:106030005343CB18E918262922DD019A3B7A7F20A9
:10604000002A11D00024002E01D0802424060C2127
:1060500083430B433B723C60019EA9E72B2A01D08E
:106060000134DDE70234DBE7002E06D024490C22A0
:10607000834313433B723960A0E7FF21C905F6E76C
:106080000134CFE7019A002A00D05B422478002C2B
:106090002ED1ED181EF032F9002D1ADD01231D421C
:1060A00004D0184AA300D1581DF0C8FD01346D106A
:1060B000E4B2002DF2D1002E02D080231B06C018BE
:1060C0007F223B7A386093431A000C2313433B72C0
:1060D00074E76D42002DEED001231D4204D00A4A20
:1060E000A300D1581DF0AAFD01346D10E4B2F1E710
:1060F00000265DE799999919FFFF7F00CBCC0C0032
:10610000000080FF98C4020080C4020070B5002522
:106110000400436A011DC3181D71006819F0D0FE08
:10612000656270BD902310B5DB00C4588EB00A00C4
:10613000002C09D06946002368460B808B70210033
:106140000FF0F6F80EB010BD094BC1582000002921
:10615000F8D031236B441C7032236B441C70332302
:106160006B441C70684623000DF0B8FDEAE7C0469A
:1061700084040000902310B5DB00C4588EB00A00E0
:10618000002C0FD00023694668460B808B700133CA
:1061900021000FF0CDF8002802D068460FF07AFEFB
:1061A0000EB010BD0D4BC15820000029F8D031238E
:1061B0006B441C7032236B441C7033236B441C7083
:1061C000684601230DF08AFD002801D10020E7E791
:1061D00068460DF023FF0028F8D0E1E784040000B2
:1061E000902330B5DB001500C2588FB0002A13D0C1
:1061F0006846002303808370194814180A00684613
:1062000021000FF041F8002804D02A002100684640
:106210000FF080F90FB030BD124BC4581000002CA5
:10622000F8D031236B441A7032236B441A70332335
:106230006B441A708923DB00E418684613000A00D7
:1062400021000DF0F1FC002801D10020E2E72A0036
:10625000210068460EF04EF80028F6D0DAE7C04676
:106260004404000084040000836B30B5002B09D087
:106270001A78002012071DD5D8695B69C01A19D594
:106280000D4817E0C16B081E14D00B00313318788D
:1062900000240025030707D50A694B690868496887
:1062A000121A8B4114001D002000034A002DE7D173
:1062B0009442E5D830BDC046FFFFFF7F10B51030D7
:1062C000FFF7D2FF10BD836B002B06D018782F2369
:1062D0009843431E9841C0B27047C36B181EFBD051
:1062E0003133187850231840F3E7826B0123002ADA
:1062F00003D1C36B581E8341DBB218007047000006
:1063000070B5040000201300044A0D00116881429A
:1063100003D02A00200010F073F970BDE046002081
:106320000300806B10B5002802D00EF049FD10BDAF
:10633000D86B002802D00DF049F9F8E7012040425F
:10634000F5E713B56B46DC1D01222100FFF7E8FFDE
:10635000012801D1207816BD01204042FBE710B58D
:106360001030FFF7EEFF10BD10B50400806B002861
:1063700002D000210EF01AFEE06B002803D00022AC
:1063800000230DF017FA10BD836B10B5002B03D05E
:1063900018000FF069F910BDC46B1800002CFAD07A
:1063A00020000EF063F8F6E710B51030FFF7ECFFB1
:1063B00010BD07B56B46D9710733103001221900A3
:1063C000FFF7E2FF0EBD000010B5024810F0DFFF3E
:1063D00010BDC04614080020F8B5B42300250126DE
:1063E00004004360783B83600670457005730B22A0
:1063F00043490D301FF0D3FF200029000722183039
:106400001FF0E9FF052720003A00E5773D492030DD
:106410001FF0C5FF200029003B2225301FF0DBFFC5
:1064200020003A00374960301FF0B9FF20002900F2
:106430003B2265301FF0CFFF23002000A0331D70EA
:106440003A003049A1301FF0AAFF200029000222A3
:10645000A6301FF0C0FF2000294915225231A83074
:106460001FF09DFF200029002B22BD301FF0B3FF3D
:1064700023002000244A2549AA33DA871231142246
:10648000EA301FF08CFF200029002C22FE301FF084
:10649000A2FF23005022EC33DA87D9235B00E554B6
:1064A0002300B333FF335D709D70DD70DB23C022AA
:1064B0005B00E65492000233E2522300FA22B93321
:1064C000FF33D2005A60E0235B00E55423000F2223
:1064D000C133FF331E719A60E62392185B00E252CB
:1064E000E12204339200E250012204335242E2528C
:1064F0000433E654DA236532FF332000E254F8BD5A
:10650000B0C40200C2C402005B07000030C5020034
:10651000EE2210B50400034B5200C9181FF03FFFD4
:10652000200010BD602200000B6870B55B69080098
:106530000C0098470025C0B20D2806D023684540BE
:106540005B6920009847C0B2F6E7280070BD0000E4
:1065500010B50400054B0022C018FFF7D1FE044B14
:106560002000E118FFF7E0FF10BDC0464C280000F6
:106570003C280000F7B51B4B0700C3181A49180048
:106580000193002620F042FF04253C00C934FF346B
:106590002000310015F0F4FE2C234343E4180434AA
:1065A000E27F002A10D0CA22FB18FF329A5CFA2A36
:1065B0000AD00C4A0D49A818E622520038189A58F9
:1065C00020F0ECFE2D18ADB20136F6B2432EDCD130
:1065D0000020019B5D19AB4203D01A780133504073
:1065E000F9E7FEBD74240000D2D00200D7D002002B
:1065F000F0B50C0087B001905849200019F022F93D
:10660000E62701000A22564819F0C1F900267F004A
:10661000019B3100C933FF33180000932C2515F07E
:10662000AFFE4543009B5B190433DB7F002B0ED08C
:10663000019B5D19CA23FF33EB5CFA2B07D0494954
:10664000200019F0FFF8E959200019F0FBF8013695
:10665000F6B2432EDCD14449200019F00FF943492A
:10666000200019F0EFF800263100009815F088FEA0
:106670002C254543009B5D192B1DDB7F002B14D07F
:106680006B78FA2B11D03749200019F0DBF8E96854
:1066900003A819F0D1FA059F03A819F07EFA002F7C
:1066A00003D0E968200019F0CDF80136F6B2432E88
:1066B000DAD12D4E2000310019F0E0F82C492000ED
:1066C00019F0C0F800252900009815F059FE2C2774
:1066D0004743009BDB191A1DD27F002A0ED05B783E
:1066E000FA2B0BD01F49200019F0ACF8019B2000B9
:1066F000DF19D137FF37396819F0A4F80135EDB249
:10670000432DE0D13100200019F0B8F80025290010
:10671000009815F035FE2C274743009BDB191A1D06
:10672000D27F002A0FD05B78FA2B0CD00D492000C5
:1067300019F088F8019B0A22DF19CA37FF37F97F61
:10674000200019F016F90135EDB2432DDFD13100EB
:10675000200019F093F807B0F0BDC046D2D0020077
:10676000284C0020F8B9020066CB02003ACA0200A9
:106770001DBA0200114B12495A880A405A805A78B1
:10678000D209FCD10F4A5A805A78D209FCD10E4A5C
:106790005A605A7852B2002AFBDB80225968920371
:1067A0000A435A605A7852B2002AFBDBC023074AD8
:1067B0009B0051680B4353607047C046000C00407B
:1067C000FFBFFFFF05460000060301000040004137
:1067D000002310B586B004A81400049105931FF09F
:1067E0008BFC01680369426903914168013302919E
:1067F0008168643A0191C16820000091024920F04B
:10680000CDFD06B010BDC04611D30200030070B527
:106810000600F0331D782D360400FF36002D0AD017
:106820002530FF300CF06CFD320001002000FFF736
:10683000CFFF280070BD0249300020F0E7FDF8E7E7
:10684000F6FD0200F8B5374B0400C35C0F00002BC7
:106850005BD0354BC35C5B18012B06DD334BC11895
:106860003348002A4ED019F009F8324BE35C002B74
:1068700022D0314B314AE61831493000FFF740FD54
:106880003000FFF732FD002844D02000FFF7BEFFA4
:1068900021002C4B2D31E518FF31280018F0D2FFD4
:1068A0002949280018F0CEFF204B2800E11818F0E5
:1068B000E5FF30000FF090FE032F22D11E4B1F4A40
:1068C000E51822492800FFF71BFD2800FFF70DFD02
:1068D000002823D02000FFF799FF2100194B2D310C
:1068E000E618FF31300018F0ADFF1749300018F0FE
:1068F000A9FF0E4B3000E11818F0C0FF28000FF080
:106900006BFEF8BD18F09EFFAFE701211A201AF0C8
:1069100071F9AAE72300D5331870CDE7D53420707C
:10692000EFE7C046282F0000162400007424000062
:10693000284C0020122400004C28000002420000D5
:106940007CD102003C28000086D102008AD10200DE
:10695000F7B501931D4B0400C71808000D00160081
:1069600020F05CFD39000200280020F05EFD009060
:10697000002814D1164BE35C9B19012B0FDD237EFD
:106980000133DBB22376092B08D9012311491A0000
:106990002000FFF7DDFF6B461B782376F7BD002351
:1069A0002376032E0BD12B000B4AF021380020F068
:1069B000C3FC019A31002000FFF744FFEEE7F0220C
:1069C0002900380020F042FDF3E7C046742400009F
:1069D0001624000094D10200B3D1020070B5040067
:1069E00019F0D6FC124E0025A359C01A632818D9F5
:1069F00019F0CEFCA05105201AF028F94342584165
:106A00002300D533187005201AF020F901231A004D
:106A1000A84208D1200007493C340135FFF798FF10
:106A20002570280070BD04492000FFF791FFF8E7AA
:106A300078260000E3D20200F3D2020010B5040071
:106A4000054B0649C01820F0E1FC0022012120007E
:106A5000FFF7F8FE10BDC0467424000075D1020097
:106A60002C23F7B54B43C3180193E423019A5B0031
:106A7000D55C04000F00C618012D41D0002D1CD09C
:106A8000022D3FD02C2300255F43F61904369D3399
:106A9000019AF577FF33D35CAB422FD1E7191F4B37
:106AA000D137FF373A68E0181D4920F077FC012202
:106AB00020001100FFF7C6FE20E003238B426D414A
:106AC000184B3900E01809F0A3F9002822D02C2334
:106AD0005F43E319114AD133FF33A01812491A68F2
:106AE00020F05CFC012220001100FFF7ABFEDC234C
:106AF0000125F71904371B01FD77E5542800FEBD79
:106B00000025DDE70A0001000848FFF78DF800289E
:106B1000B8D0DCE7002DB5D0D9E7C046742400001A
:106B2000B5B80200C80D0000A9B802000008002096
:106B3000F7B505002C00C934FF3426002C270C20A3
:106B400019F05CFE0D4BEB1801932378012B0AD151
:106B5000A1780B4BCB185B00EB181B79002B07D0EF
:106B60002800FFF77DFF019B2C349C42EDD1F7BD3F
:106B7000794371180431CB77F5E7C0464C0D00001E
:106B8000C4110000F8B52C23E4224B435200C31873
:106B90009F5C244B04000E00C518012F36D0002F37
:106BA0000DD0022F34D02C237343E318D133FF339D
:106BB00028001A681C4920F0F1FB002514E003228C
:106BC0008A427F41194B3100E01807F077FC00281A
:106BD00024D02C237343E318D133FF3328001A68E1
:106BE000134920F0DBFB0125012220001100FFF7F3
:106BF00029FE2C21002371436118CD31FF31CB7761
:106C0000DC2301221B012800E254F8BD0027D9E74C
:106C10000848FEF74FFD0028C5D0DAE7002FC2D0A4
:106C2000D7E7C0467424000016CF0200C80D00004C
:106C3000D1B8020000080020264BF0B5C7182C235D
:106C40004B43C31816001A00D13289B0FF3204003A
:106C50000193126833680D0038001F4920F09EFB35
:106C6000012220001100FFF7EDFDE423019A5B00F3
:106C7000D35C012B03D0022B10D009B0F0BD310042
:106C800005A819F07DF8154B2A00E018210005AB86
:106C900008F042FD05A818F080FFEEE7310005A8D6
:106CA00019F06EF805AB2A000D4902A8FEF7E0FACC
:106CB00005A818F072FF049B39005A1C02A8002393
:106CC00019F097F9012220001100FFF7BBFD02A87F
:106CD000E1E7C046742400000FCF0200C80D000099
:106CE00000080020F0B505002535FF3591B00400FF
:106CF00028000CF0FBFA060028000CF0EDFA070063
:106D000028000CF0DFFA3B0000903200404908A850
:106D100020F044FB3F4B08A9E31818000293FFF74B
:106D200001FA071E35D008A92000FFF711FC060064
:106D30002000FFF71FFC86422BD0012628000CF014
:106D4000D5FA039028000CF0C7FA070028000CF0D1
:106D5000B9FA3B0001960090039A2F4904A820F04D
:106D60001DFB04A90298FFF7DDF90136F6B2071EF4
:106D7000E4D12A4B04AA2A49E01820F00FFB012293
:106D800020001100FFF75EFD04AA08A90298FFF792
:106D900027FA244B244AE31808A918000293FFF7A6
:106DA000AFFA061E14D12300D53318705870012392
:106DB0001E491A002000FFF7CBFD200002224130BF
:106DC000FF303300110005F017F9300011B0F0BDAD
:106DD000174BE3180393002F03D119002000FFF78E
:106DE00007FC144B0398E11818F02CFD02980FF0E3
:106DF000F3FB2300D4331B78022BE6D123000022BF
:106E00004C331A7028000CF07BFA6064DDE7C04652
:106E10007DD302008C28000090D30200742400006F
:106E2000A8D302004C28000002420000DBD302007D
:106E30003C2800003B1F0000F7B506002536FF3652
:106E4000040030000F000CF05BFA0500380019F068
:106E50002DFA010030000CF0C5F930000CF050FAAA
:106E60000190380019F022FA019B0133181A022808
:106E70003ED826230122FF33E2542300E8331A725E
:106E8000002230005A729A721A600CF039FAA36C20
:106E90001B4A5B1B1B18A364636CA1185B1B1B18AC
:106EA0006364E3695B1B1B18E3612300E533FF3375
:106EB000401B1A68002A01D082181A602C338B42BA
:106EC000F7D119F065FA2300FC33D8622000FFF7F0
:106ED0009DFC22000B4B2D32FF32E0180A4920F0B6
:106EE0005DFA012220001100FFF7ACFC0120FEBD7D
:106EF000012320001A000549FFF72AFD0020F6E7CC
:106F0000680D000074240000A0D20200B0D202007C
:106F10000C4B37B51A680C4B0C49C2500C4B0D4C3E
:106F20001B680D4D43500D49096801510C4C2468F4
:106F3000445104354019009101940A4920F02EFA79
:106F400037BDC0460CA08000302F0000342F000059
:106F500040A08000382F00003C2F000044A080009B
:106F600048A0800054CB020010B504000368DB6A1F
:106F70009847236820005B6B984743425841C0B252
:106F800010BD0000F32310B55B010400C15C0C4888
:106F9000FFF7EAFF002804D0F3235B01E01807F0B5
:106FA000B7F9012307491A002000FFF7D1FCBFF30E
:106FB0004F8F054B054ADA60BFF34F8FC046FDE7A0
:106FC000E846002077D3020000ED00E00400FA0557
:106FD00070B5457A0400002D02D00025280070BD50
:106FE00019F0D6F923686268C01A904201D8002BC4
:106FF000F3D1A27AE37A9A4202D101236372EDE7D8
:1070000019F0C6F9A37A20600133A3720125E5E7E0
:1070100000230372437283720360704703002033BE
:107020000360436088239B00C3188360C360002310
:107030007F220374037F9343037770470B6810B577
:107040004B60CB687F248B6000230A7F0B74A243C4
:1070500014004B618B6120220B00224314330A770A
:107060000360416010BD20220B7F13401A1E01D027
:107070000A001432026041607047021E07D07F216F
:10708000037A00200B40043B012B00D810687047A6
:10709000002310B5047E82689C4203D043698B4272
:1070A00007DC02698B4206DA002A0AD052680133F3
:1070B000F8E70023F6E78B4205D101214361017611
:1070C0000261100010BD0022FBE7F8B50025416801
:1070D00004002E00A94210DD057601290FD00239E7
:1070E000FFF7D6FF0700436818001E7819F04CFA26
:1070F00063687D60013BE76063603000F8BD8368D2
:1071000018001E7819F040FAA560E5606560F4E7A4
:10711000F0B524C8954211D90800130007781C78EF
:107120005E1CBC4204D1002C09D001303300F5E7CD
:10713000187801331A000028FAD1EBE7002210007A
:10714000F0BD03000020834208D01A7A7F308243CA
:1071500010000822024301201A7219607047F7B527
:107160000027040000911600B84206D0B94206D1AB
:107170007F22037A9343037201273800FEBD0099F2
:107180001000FFF7C5FF051E1CD1009820F046F93E
:10719000030075680133B268EB180190934207D978
:1071A000012333747F22237A002793432372E4E779
:1071B0007360002DF6D0019A009928001FF0EFF8B7
:1071C000019BEF547F22237A256093431A00052305
:1071D00013432372D0E70023F7B504000F00160015
:1071E0000093984208D00968994207D17F22037A18
:1071F00093430372012300930098FEBD1000FFF734
:1072000087FF051E1BD1BB6875680193B268013307
:10721000EB18934207D9012333747F22237A9343D7
:1072200023720023E7E77360002DF6D0019A3968D6
:1072300028001FF0B4F86A46019B1278EA547F22B6
:10724000237A256093431A00052313432372D1E761
:1072500010B5002802D00068FEF745FE10BDF8B555
:1072600003000E004068D968FFF7F2FF031E0CD040
:107270007F22007A10400638062832D81BF0F6FD2F
:107280002D312431043106000420F8BD18681EF0A9
:1072900013FE040030680D001EF0DCFD0B00020040
:1072A00006000F00200029001BF08CFF03000420C3
:1072B000002BEAD13B003200200029001BF096FF92
:1072C000431E98410130E0E71A68336804209A426F
:1072D000DBD3934280414042F4E71A68501E82415A
:1072E000F3E70020D1E770B505000C001600002878
:1072F00011D0081E0FD02868FEF7F5FD00280AD12E
:1073000031002800FEF705FE002804D07F22037A12
:10731000C4601340037270BD437C002B06D1C36868
:107320005A1CC2601B78037401234374007C7047AD
:1073300010B504002000FFF7EFFF0A2806D809283F
:1073400008D2002809D0012020720CE00D2801D0BD
:107350002028F8D100236374ECE7237A58345A1EAE
:1073600093410133237010BD1FB57F220300007AC3
:1073700010400438082826D81BF078FD0808052599
:10738000052525251300186804B010BD18680023D2
:1073900001AC23722100FEF7D9FD2000FFF7E4FFC6
:1073A000F2E71C680021201C1BF064FF0028EBD0D2
:1073B0009F21201CC9051BF049FF0028E4D0201C98
:1073C0001BF082FFE0E70020DEE770B504000D004F
:1073D000FFF7A2FF0023A84201D163740133180014
:1073E00070BD2F2815D90123392803D95E2803D968
:1073F0007A2803D81800704740280AD901235A2850
:10740000F8D9002301222D38C0B282425B41DBB2A1
:10741000F0E701232B28F4D1ECE737B500236A46C7
:107420001370C3B27F280BD853706B460233013BF5
:107430001878002831D00A68541C0C601070F6E7E8
:107440003F2480226D4623405242134380096B70D3
:1074500085B2C3B21F2D06D8403213436A469370DB
:107460006B460333E3E76D46234000041343800D6E
:10747000AB70C3B20F2805DC202252421343EB70DD
:1074800001ABD4E71C40102380115B4218436B46CC
:107490002243EA7028710533C9E737BDF7B5050007
:1074A0000027FFF739FF6F7401902800FFF734FFC2
:1074B0000024019A03006C74824259D0A04204D186
:1074C0000223583500202B70FEBD5C284BD12800CC
:1074D000FFF722FF0028F3D0284B752839D1042666
:1074E0006C742800FFF718FF0028E9D0402806D860
:1074F0003038C0B20F2806D958350323E2E72023DD
:1075000098433738F5E700232401013E0443F6B2DF
:10751000A4B26B749E42E4D1A0239B01E318184AE5
:107520009BB2934202D8A405A70DBEE790239B010E
:10753000E3189BB22000934206D880238005BC024A
:10754000800D20435B02C0182900FFF766FFACE7FF
:1075500002331A78002ACFD09042F9D15B78002B01
:10756000CAD000226A742A68511C296013709CE7F3
:107570002B6801205A1C2A601C70A5E703C8020072
:10758000FF030000036870B543600400FFF7C4FE0A
:1075900027280DD022280BD02000FFF7BDFE0500C4
:1075A000FFF71FFF061E09D103235834237003E0A1
:1075B0002000FFF773FF0600300070BD00236374E6
:1075C000236820005A1C22601D70FFF7A5FE0500ED
:1075D000FFF707FF0028F1D123685A1C22601870BA
:1075E000EAE7F7B504000D001F1CFFF7A1FE0190AC
:1075F000002801D1002658E02000FFF78DFE272843
:1076000000D17BE01DD8222800D177E02000FFF7D1
:1076100083FE002600900098F7B2FFF7E2FE0028F4
:1076200000D17EE00136402E00D179E06A46002389
:1076300012786374A319DA752000FFF76DFE0090CD
:10764000E9E75B2813D07B28E0D17F222B7A290041
:1076500093431A00202313432B72002300222B6034
:107660006B6020003B1C00F087F806001DE07F22C5
:107670002B7AFFB293431A00402313432B7200234B
:107680002B606B609F4203D1583406332370B1E7FF
:1076900063742000FFF74CFE0028ABD05D21200072
:1076A000FFF793FE061E02D0019E3000FEBD616909
:1076B0002800FEF72EFC011E03D10423583423704A
:1076C000F3E77B1E00222000FFF78BFF002800D18C
:1076D00090E72000FFF72CFE002800D18AE75D210B
:1076E0002000FFF772FE0028DED12C212000FFF7DA
:1076F0006CFE0028DBD158340323C7E72368200041
:107700006360FFF7CBFE061E00D173E77F2263683C
:107710002B602B7A93431A00042313432B72C4E784
:107720003F270021E3191976237E742B0DD17F2288
:107730002B7A93431A00062313432B7201232B60E9
:10774000042FB1D058340223A0E7662B0AD17F2240
:107750002B7A296093431A00062313432B72052FBB
:10776000F0D1A1E76E2BEBD0200029001830FEF7F6
:10777000EDFB0028BFD097E7F7B5DFB204000E009D
:10778000002F04D106235834237000250DE0002378
:107790004374FFF7CDFD01900028F6D07D21200035
:1077A000FFF713FE051E28D0019D2800FEBD63686B
:1077B000306819000093FEF796FB002831D00100D5
:1077C0007B1E00222000FFF70CFF0028DDD02000E8
:1077D000FFF7AEFD0028D8D07D212000FFF7F5FD92
:1077E0000028E1D12C212000FFF7EFFD002814D064
:1077F0002000FFF79DFD0028C7D02000FFF7C2FE44
:107800000028C2D02000FFF793FD0028BDD03A2108
:107810002000FFF7DAFD0028C9D103235834237074
:10782000C3E761693000FEF774FB002802D15834C9
:107830000423F4E77F22037A13400372009BC360A2
:10784000BDE70000F0B504007F26131C026899B064
:107850004260C26817AF8260257F0020B54325775C
:107860000A6821000192104A01AD2074029028722A
:107870000492687438701431002228000694FFF7CF
:10788000B0FE387800280BD12B7C002B08D0237F4A
:107890001E400C2E06D07D221340082B00D1033051
:1078A00019B0F0BD0320FBE76F0A002030B5446833
:1078B0008A1843680568AB4207D2914205D05D1C27
:1078C00045600D7801311D70F3E700221A7043689E
:1078D00082681B1BD318836030BD70B5050008009B
:1078E0000C001FF09BFD210002002800FFF7DEFFC7
:1078F00070BD000070B5050000242B7CA34206D9A2
:10790000034928000134FFF7E8FFE4B2F5E770BD52
:10791000C8BA020010B5426804680023A24205D22A
:10792000541C446011704268137001338268D3188C
:10793000836010BD70B50D00040022212000FFF708
:10794000E9FF2978002909D00A4B01351E78002E5D
:10795000F4D05A788A4206D00233F7E72221200079
:10796000FFF7D8FF70BD5C212000FFF7D3FF310087
:10797000E4E7C04605C80200F0B5162407000D0074
:107980000A2687B06C44280031001BF009FB013C3B
:1079900030312170280031001BF07CFA051EF2D135
:1079A00016236B441A1B21003800FFF77FFF07B036
:1079B000F0BD000010B5002903D00349FFF78DFF8B
:1079C00010BD0249FAE7C04690BB020095BB020019
:1079D0000623F7B50E1C070083725849301C1BF0B4
:1079E00049FC002844D00023142420250093544B44
:1079F000311C18591BF02AFC002809D0514B301CAF
:107A000019591CF01BF9009B061CE81803B20093DF
:107A1000043C6D10231DEAD103340021301C1BF0FF
:107A20001FFC002828D0301C1EF046FA464A474B5F
:107A30001BF0D2FB00281FD0A300019323061BD408
:107A4000434B019A311C98581BF00AFC00280AD0BD
:107A50003B4B019A301C99581CF0F0F8009B061C17
:107A6000581B03B20093019B6D10013C043BE4E7FB
:107A7000202505240090D0E76B461B88301C3B81F5
:107A80001BF022FC0400334D38600190019B092B50
:107A90000DD90A2128001BF0FDF9BB7A0500013B36
:107AA0000198BB720A211BF0F5F90190EEE7200066
:107AB0001CF024FC011C301C1CF0F2F9061C2800F0
:107AC0001CF01CFC011C301C1CF0B8F801901BF0D1
:107AD000FBFB06001CF012FC011C01981CF0E0F9F5
