:1020000000800020F5170200DD170200DD17020036
:1020100000000000000000000000000000000000C0
:10202000000000000000000000000000DD170200BA
:102030000000000000000000DD1702004918020047
:10204000DD170200DD170200DD170200D542010096
:10205000150B0200DD1702002DE90100E117020057
:10206000DD170200D5EA0100C9630000DD17020098
:1020700021890100DD17020091EB0000DD1702004D
:10208000DD170200DD170200DD170200DD17020078
:102090006D300100DD170200DD170200DD170200C0
:1020A000DD170200DD170200DD170200DD17020058
:1020B0000000000010B5064C2378002B07D1054B1B
:1020C000002B02D0044800E000BF0123237010BDA4
:1020D000D002002000000000D04E0300044B10B5D9
:1020E000002B03D00349044800E000BF10BDC046E8
:1020F00000000000D4020020D04E030010B5040000
:102100008B681FF035FA200010BD10B504F03AFFBF
:1021100010BD000037B5040004F0FAFE2100A43120
:102120000968144B01912100E5182200BD23983164
:1021300009689B0100918C32E318280012680E494F
:1021400026F096FB01222000110004F07BFB210009
:102150002300BC310968094A0091B033A2181B68FA
:102160002800074926F084FB01222000110004F01A
:1021700069FB37BD7424000009CB02006D2200000A
:1021800058CB020010B5154B1A78D2B2042A18D0D9
:1021900004D8012A0CD0022A0FD010BD202A14D056
:1021A000402A16D0102AF8D101230D491A0001E067
:1021B00013000C4904F0CCFBEFE701230A491A0095
:1021C000F8E7012309491A00F4E7012308491A0036
:1021D000F0E7012307491A00ECE7C0463804004045
:1021E000D1CC020077CC02008BCC0200AECC020036
:1021F000E5CC0200F9CC02008B6810B50400002B7E
:1022000010D1194B194AC35C19499B18194A9B00F4
:1022100080181A5926F02CFB01222000110004F02E
:1022200011FB10BD08001FF0ABFAC3B2022B14D88B
:102230000D4A1149A3540D4A9B180E4A9B00A01841
:102240001A5926F015FB01222000110004F0FAFAB9
:102250000021200006F0DEFDE3E7012307491A0014
:10226000200004F075FBDCE7162400001A090000CA
:10227000A8C9020074240000C1C90200D6C9020026
:102280000122F0B511008BB0050004F0DBFA9A23AF
:1022900001279B01EC18C133FF33EB18039314495A
:1022A00004A81EF007FF216807A8069E1EF002FF83
:1022B000099B04A8F11A1FF027FA07A81EF0ABFE2D
:1022C00063680C4800932268049B0B49281826F089
:1022D000CFFA3A003900280004F0B4FA04A81EF03E
:1022E0009AFE039B10349C42D9D10BB0F0BDC0467E
:1022F00090CF0200742400009DCF020070B505004D
:1023000000240126074B2000E918002201341AF0AE
:1023100097FCE4B232003100280004F093FA1A2C42
:10232000F0D170BD74240000F0B505008C68C9358B
:102330009BB006000F00FF35002C5BD1C94BCA498A
:10234000C3181800039326F0CBFA012230001100C5
:1023500004F078FA2C27210028001BF04FFA78436C
:102360002B180433DB7F002B08D13018D130FF301D
:10237000013301681A00300004F0EAFA0134E4B2D3
:10238000432CE8D1B949039826F0AAFA012230007B
:102390001100802704F056FA0024BF002100280015
:1023A0001BF02CFA2C2358432B181A1DD27F002A1D
:1023B0001AD00233DA7FAE4B3018F358D130534382
:1023C0000092FF3001930368AA4A3900039826F06F
:1023D0001DFA00220121300004F034FA0123A6493D
:1023E0001A00300004F0B4FA0134E4B2432CD5D121
:1023F0001BB0F0BDA14915A81EF05CFE15A9380060
:102400001FF08AF8040015A8013C1EF004FE23B258
:102410000022390015A81FF0ABF8159928001BF011
:10242000B7F9039015A81EF0F6FD0D2311220CA993
:102430000B7001334B7001338B700133CB7010ABD9
:102440001A7001325A70182001329A700132DA7013
:1024500001321A7101325A711693894B1A250E9363
:1024600002230DAA107001385070053090700138A9
:102470000AACD070023820700430607017920BA83C
:102480000EAA05701371043515AB457019900693AB
:1024900018000023159118940593049307920021C6
:1024A000079A9D5CCCB2A5420BD90468625C944645
:1024B000039A944503D0049C01310494F2E70595F6
:1024C000FAE701330430052BE9D1039B432B06D1F6
:1024D000423B1A006B49300004F03AFA88E76A4937
:1024E00012A81EF0E7FD12A938001FF015F804002D
:1024F00012A81EF090FD002C00DAD3E00399300002
:1025000004F0AEFA041E2FD00124049D039BAC46B8
:102510005E4A9B185B00F3181C71059B634407938C
:10252000079BAB4200D101E12B78039A934219D06B
:102530002C225A43B118CD31FF31CC775349B21810
:102540005B185B00F3181C711300D133FF331A685A
:10255000444B4F49F01826F08BF90122300011004E
:1025600004F070F90135DBE72C23039A4949534302
:10257000F318D133FF331A683A4BF01826F078F984
:1025800001223000110004F05DF9434D12A829002A
:102590001EF090FD12A938001EF0BEFF079012A891
:1025A0001EF039FD079B002B00DA1AE1290012A862
:1025B0001EF080FD12A938001EF0AEFF050012A823
:1025C0000A351EF028FD2AB2390012A8FFF796FD41
:1025D00012A81FF0D5F8264BF558290021F0C4FEAB
:1025E000234BC7B20893002F00D1013780211D4B28
:1025F0002A4AF318079389002B00079826F006F95A
:1026000001223000110004F01DF9FF2F00D1F0E08D
:102610000024059BA34200D18BE0049CE518A54251
:1026200000D185E02C22237807985A43B118CB318A
:10263000FF31CF771549B2185B185B00F3185F7153
:10264000089BD132F358FF32049312687B4314493C
:1026500026F00EF901223000110004F0F3F80134E5
:10266000DDE7C0467424000014CD02002BCD02002B
:102670006822000041CD02009BCF0200C74E03003C
:10268000040604025ECD020075CD0200C4110000F4
:102690007DCD020089CD0200B2CD0200BCCD02008A
:1026A0000FCE0200564912A81EF004FD12A93800F0
:1026B0001EF032FF0024050012A81EF0ACFCA5425B
:1026C00000DA62E701250399300004F05BFA039B0E
:1026D0004C4A9B185B00F3181C71049C2B1B07933E
:1026E000079B059A1B19DBB29A421FD96378039A9C
:1026F000934219D02C2200215A43B018CD30FF301C
:10270000C1774048B2181B185B00F3181971D13219
:102710003D4BFF3212683D49F01826F0A9F82A0017
:102720002900300004F08EF80134D9E701242CE7A9
:102730000124F6235B01F25A354BF35AD3180022D9
:10274000100004930EABD35C00219C463300C933C8
:10275000FF330993CBB2634515D22C25069B1B682A
:102760005B5C6B43099DEB18089D02337559DB7F59
:1027700005956B43049D9D4203DD0120254BF054DC
:1027800001200131E6E7069B013204330693052A56
:10279000D8D1002801D11F4BF054002C1ED12C227F
:1027A0001849039B8C465A43B318CB33FF33DF776A
:1027B000039BB21863445B00F3185F71089BD1322E
:1027C000F358FF327B4312681349079826F050F8FC
:1027D00001223000110004F035F8013412A81EF077
:1027E0001AFC002C00D103E60021300006F012FB99
:1027F000FEE5012309491A00300004F0A9F8EDE7CD
:102800009CCD0200C411000074240000A5CD02007C
:10281000C21E0000641E00000FCE02002ECE020079
:1028200070B50C0005000B7803704B7843708B7803
:1028300083704B6843608B688360CB681031C360E2
:1028400010301EF0DBFCE3692800EB61631CDA7FCB
:102850006B1CDA77A31CDA7FAB1CDA77E31CDA7F18
:10286000EB1CDA77231DDA7F2B1DDA77631DDA7F05
:102870006B1DDA772622A35E2834EB842B002278A6
:1028800028331A7070BD000070B50400C934FF34DD
:102890008EB00500096820001AF07AFF2C21414310
:1028A000611803AC2000FFF7BBFF164BEE1804AB1A
:1028B000DB7F002B05D1A2681349300025F0D8FF3B
:1028C0000FE02100280006F0ABFC2623E25E002A80
:1028D00011D1E3680D490093A268079B300025F0F1
:1028E000C7FF01222800110003F0ACFF07A81EF06B
:1028F00092FB0EB070BD0649531CDED1A26805499B
:10290000DBE7C0467424000004CC02001DCC0200AA
:1029100042CC020027CC0200F0B50700C9370D00F9
:10292000FF3785B00400096838001AF031FFAB6842
:102930000600002B07D101331A000F49200004F0D4
:1029400007F805B0F0BD432803D101230B491A0055
:10295000F4E7296838001AF030FF2900020001A8C6
:10296000FFF7CCFB200001AA310004F065F901A8B3
:102970001EF051FBE5E7C04644CE020074CE0200D3
:10298000F0B58D6897B0040003910FAF002D37D1DB
:102990000123A2491A0003F0DBFF1C2229003800A2
:1029A00024F083FF9E4B3900E0180AF035FF3A8887
:1029B0009C4B9D49E5187B880092FF222800D2009D
:1029C00025F056FF01222000110003F03BFFFB68B9
:1029D000964900937B687A69280025F049FF012217
:1029E0002000110003F02EFF3A8B9149280025F0BA
:1029F0003FFF01222000110003F024FF17B0F0BDBB
:102A00008C4938001EF056FB390003981EF084FDF7
:102A1000050038001EF0FFFA002D04DB804BE018A3
:102A20000AF00AFAEAE7844938001EF043FB39004D
:102A300003981EF071FD05B238001EF0ECFA002D6F
:102A400000DA89E02300CC331A780492002A0CD1F2
:102A500001321A706A462000127C41305A700521FA
:102A6000049B0322FF3009F08FFA2A0003990932F0
:102A700009A8FFF743FB714938001EF01BFB390022
:102A800009A81EF005FD050038001EF0C4FA002D4F
:102A900013D109A81EF074FE83B20593FF23059A93
:102AA000DB009A420AD9012320001A00644903F08E
:102AB0004FFF09A81EF0AFFAA0E7012561493800D1
:102AC0001EF0F8FA390009A81EF026FD06003800AD
:102AD0001EF0A1FAF2B2013209A90CA8FFF70EFB11
:102AE000594938001EF0E6FA39000CA81EF0D0FC57
:102AF000060073425E4138001EF08DFAF3B2079370
:102B0000474BE3180693002D4AD000252E002900DC
:102B1000079A06980AF044FCFF230135ADB2361837
:102B2000DB009D42F3D13F4B3200E018474925F0CE
:102B30009FFE01222000110003F084FE049B002B65
:102B400004D16A462300127CCC331A700CA81EF004
:102B500062FA09A81EF05FFA0FAD3D4928001EF089
:102B6000A9FA290003981EF0D7FC06B228001EF02F
:102B700052FA002E24DB0399B21D2800FFF7BEFA9B
:102B800028001EF0FDFDFF2381B2DB0099420ED923
:102B9000012320001A002A4903F0DAFE280089E701
:102BA000079A059906980AF0FBFB0600BBE780220E
:102BB0001B4B5201E0180AF079FD28001EF02BFA99
:102BC000244928001EF076FA290003981EF0A4FC80
:102BD00006B228001EF01FFA002E00DA0EE73200BF
:102BE000039908320CA8FFF789FA0CA81EF0C8FD5B
:102BF0006B4603909A890B4BE618174B9A422FD9D4
:102C0000FF221649D200300025F032FE01222000BA
:102C1000110003F017FE0CA84CE7C0466DD002006F
:102C2000381F0000742400009AD00200C6D00200B1
:102C30001FD1020039D1020041D10200EB41030053
:102C40004AD102009BCF020067D102006BD1020083
:102C500081D1020087D10200F70700008FD1020066
:102C6000484B2800E1180AF09BFC6B4629789B89A9
:102C7000454A03932B69002904D16978434A002906
:102C800000D0434A00924349039A300025F0F0FDFA
:102C900001222000110003F0D5FDAA783E4B002A46
:102CA00000D03E4B039A3E49300025F0E1FD012261
:102CB0002000110003F0C6FDEA78374B002A00D04F
:102CC000364B039A3749300025F0D2FD012220000F
:102CD000110003F0B7FDFA883349300025F0C8FD34
:102CE00001222000110003F0ADFDBA882F49300009
:102CF00025F0BEFD01222000110003F0A3FD7A891A
:102D00002B49300025F0B4FD01222000110003F012
:102D100099FD3A892749300025F0AAFD01222000BB
:102D2000110003F08FFDBA892349300025F0A0FD82
:102D300001222000110003F085FD2500FA891F49BA
:102D4000300025F095FD01222D35FF3511002000C2
:102D500003F078FD2A007969200003F039FD2A008C
:102D60001749300025F084FD01222000110003F0F6
:102D700069FD2A00B969200003F02AFD2A001149E3
:102D800041E7C046381F000051D0020056D0020073
:102D90005BD00200AAD1020067D0020062D002001C
:102DA000CCD10200F5D102001ED2020037D20200BF
:102DB00053D2020067D202007FD2020090D20200FA
:102DC000A4D20200B4D2020037B505006B46002041
:102DD000DC1DD87126F0FCFC054B221A0549E818C9
:102DE00025F046FD01222800110003F02BFD37BD20
:102DF00074240000F1C80200F0B58E68FFB0040032
:102E00000D00002E00D119E2414907A81EF052F929
:102E100007A928001EF080FB060007A81EF0FBF89B
:102E2000002E00DA92E00121200005F0F3FF0126D8
:102E3000384B3949E01825F053FD012220001100DC
:102E400003F000FD07AF2100380003F061FB314BB8
:102E50007A78E518314B3249D2189200A2187B6873
:102E60005268280025F004FD01222000110003F023
:102E7000E9FCBA682B49280025F0FAFC0122200061
:102E8000110003F0DFFCFB7F002B00D1D9E11FAB69
:102E90000FAA2549280025F0EBFC01222000110093
:102EA00003F0D0FC2FAB1B78002B00D1CEE1AD227C
:102EB00004ABD2181D49280025F0DAFC01222000BD
:102EC000110003F0BFFC1A4B1A49E218280025F044
:102ED000CFFC01222000110003F0B4FC164B174A6E
:102EE000E35C002B00D0164A1649280025F0C0FCF0
:102EF00001222000110003F0A5FC002E05D00123C3
:102F000011491A00200003F023FD7FB0F0BDC04638
:102F100096C7020074240000F1C70200D80B00001D
:102F200004C8020028C8020042C802007DC802008E
:102F30006D2200009DC80200382400001DCF020051
:102F400059DD0200AEC80200D3C80200C24907A87A
:102F50001EF0B0F807A928001EF0DEFA06B207A896
:102F60001EF059F8002E1CDBB21D290004A8FFF743
:102F7000C5F804A81EF0CEFBB84907A81EF09AF8C1
:102F800007A904A81EF084FA060007A81EF043F85B
:102F9000002E00D134E10222B14BE25404A81EF00D
:102FA0003AF8B04907A81EF085F807A928001EF0D6
:102FB000B3FA06B207A81EF02EF8002E11DB32007D
:102FC0002900083207A8FFF799F807A81EF0D8FBD8
:102FD000A54B421F9A4201D8A44BE05007A81EF00F
:102FE0001AF8A34907A81EF065F807A928001EF0E3
:102FF00093FA06B207A81EF00EF8002E13DB32007B
:1030000007A809322900FFF779F807A81EF0B8FBD6
:10301000042805D9954BE358834201D3954BE050E2
:1030200007A81DF0F8FF944907A81EF043F807A968
:1030300028001EF071FA07B207A81DF0ECFF002F60
:103040007DDB8E4E07A831001EF034F8BA1D07A9AB
:1030500028001EF051FA070007A81DF0DCFF3FB260
:10306000310007A81EF026F87B1C1A0007A92800CB
:1030700001931EF041FA03B207A802931DF0CBFFA3
:10308000310007A81EF016F8029B07A95A1C280059
:103090001EF032FA070007A83FB21DF0BCFF01374F
:1030A000310007A81EF006F83A0007A928001EF014
:1030B00023FA03B207A803931DF0ADFF07A8029BF4
:1030C000019A29001EF054FA099E07A81DF0A3FFDB
:1030D000002E13D0029B019A290007A81EF048FA7F
:1030E0008A21890100234022611807A81EF0EAF90D
:1030F00007A81DF090FF0122614BE254039B3A00A8
:10310000290007A81EF034FA099B07A801931DF0B7
:1031100082FF8B239B01E618019B002B00D181E0ED
:10312000039B3A00290007A81EF022FA07A80023F3
:10313000402231001EF0C6F907A81DF06CFF51496E
:1031400007A81DF0B7FF07A928001EF0E5F906B291
:1031500007A81DF060FF002E15DBF21D290007A84F
:10316000FEF7CCFF099B052B0AD94749002307220C
:10317000611807A81EF0A6F98C2301229B01E254D6
:1031800007A81DF048FF414907A81DF093FF07A9B4
:1031900028001EF0C1F906B207A81DF03CFF002E62
:1031A00028DB32002900083204A8FEF7A7FF3849BF
:1031B00007A81DF07FFF07A904A81EF069F9050004
:1031C00007A81DF028FF0023002D0ED1314907A8C4
:1031D0001DF070FF07A904A81EF05AF9050007A802
:1031E0001DF019FF0123002D22D02B4AA35404A85F
:1031F0001DF011FF0021200005F00CFE002617E64F
:10320000264907A81DF056FF07A904A81EF040F99B
:10321000060007A81DF0FFFE002E00D1BEE6104BF1
:103220000122BAE640221E49300025F079FB86E7EC
:103230001A001C49200003F08BFBD8E71A4BC65438
:1032400000E61A49280025F04BFB26E6184928001D
:1032500025F046FB32E6C046A0C702008FCE020032
:1032600061220000A6C702000B0E000064220000CD
:10327000AEC7020068220000B7C70200BDC7020047
:103280007F220000BFC7020001230000C6C7020062
:103290001DCF020059DD02003824000067D1020072
:1032A00066E00200CEC70200742400005CC8020081
:1032B00087C8020070B50D0086B02E4904002800B2
:1032C0001EF0BCF80221061E39D12B4928001EF041
:1032D000B5F83100002832D1284928001EF0AEF898
:1032E000032100282BD1264903A81DF0E3FE03A9E2
:1032F00028001EF0CDF8060003A81DF08CFE002E5D
:1033000022D0204968461DF0D5FE1F4903A81DF0B4
:10331000D1FE03AA694628001EF048F903A81DF053
:103320007AFE68461DF077FE28001EF029FA174B3A
:10333000C218174B9A4201D8164BE05001212000C9
:1033400005F064FA06B070BD134928001EF076F847
:1033500004210028F3D1114928001EF06FF800283D
:1033600001D00521EBE701230D491A00200003F0ED
:10337000EFFAE7E718CF02001CCF020021CF0200CE
:1033800029CF020030CF020066E00200003EFEFFBF
:10339000004E0C003C24000038CF02003FCF02005A
:1033A00045CF020010B5024A022105F0A3FB10BD73
:1033B00066E002007FB5040025302600FF300D00D6
:1033C00011F09AF92D36FF3601003200200003F08B
:1033D000FFF901222000110003F034FAAB68002B42
:1033E0000FD1200003F012FA00283AD0234B32000C
:1033F0002349E01825F03CFA01222000110003F0D7
:1034000021FA204928001EF019F8002818D02300BE
:10341000CE331B78002B06D12000022105F0F6F9EF
:10342000C8201EF055FA184A0321200005F062FB5F
:10343000002805D0012315491A00200003F088FA5E
:1034400028001EF09DF900280ADD290001A81DF0C2
:10345000D5FE01A9200003F0EFFC01A81DF0DBFD63
:103460007FBD012320001A00094903F071FA064AC2
:103470000321200005F03EFBC3E7C0467424000092
:10348000A5CF0200D4CF020066E00200DACF02002E
:10349000AECF020010B50A4A0421040005F02AFB51
:1034A000002805D0012307491A00200003F050FA34
:1034B000012305491A00200003F04AFA10BDC04656
:1034C00066E00200C6D20200D2D20200F0B58B68DC
:1034D00085B004000D00002B00D196E06C4901A8D6
:1034E0001DF0E8FD01A928001EF016F800260700CF
:1034F00001A81DF090FDB74213DB0123654AA15CD2
:103500004B40A354644AA018644AB34200D1644AB1
:10351000644925F0ADF901222000110003F092F971
:103520000126614901A81DF0C5FD01A928001DF073
:10353000F3FF070001A81DF06EFD002F17DB01232C
:103540005A49625C5A406254594AA15C4B40A354A8
:10355000514AA018514A002B00D1514A554925F033
:1035600087F901222000110003F06CF9012652496D
:1035700001A81DF09FFD01A928001DF0CDFF070047
:1035800001A81DF048FD002F13DB01234B4AA15C6D
:103590004B40A354404AA018404A002B00D1404A57
:1035A000474925F065F901222000110003F04AF98E
:1035B0000126444901A81DF07DFD280001A91DF048
:1035C000ABFF050001A81DF026FD002D5DDB0123EA
:1035D0003D4AA15C4B40A3543C4A53712E4AA0186B
:1035E0002E4A002B00D12E4A394925F041F90122FB
:1035F0002000110003F026F9912301229B01E254DF
:103600000021200005F006FC3DE0234B234AC518AD
:10361000204BC35C002B00D1214A2249280025F011
:1036200027F901222000110003F00CF9204B1B4A5E
:10363000E35C002B00D11A4A1E49280025F018F936
:1036400001222000110003F0FDF81C4B134AE35C3B
:10365000002B00D1124A1A49280025F009F901224D
:103660002000110003F0EEF8174B0C4AE35C002B2E
:1036700000D10B4A1649280025F0FAF80122200053
:10368000110003F0DFF805B0F0BD002EB8D1FAE765
:10369000F0CF0200122400007424000062D0020067
:1036A00067D00200F8CF020029CF02003A1F0000C5
:1036B000142400000AD0020021D0020015240000CA
:1036C00028D0020038D0020013240000680A00202D
:1036D00040D00200F8B505008B6804000E00CC3520
:1036E000002B12D0214930001DF0A8FE071E1CD06F
:1036F000012322002B7000232000CD3213700521FE
:1037000003224130FF3008F03FFC194B194AE01802
:103710002B78002B00D0184A184925F0A9F801226F
:103720002000110003F08EF8F8BD154930001DF09F
:1037300085FE0028E9D0230020002F70CD331978B2
:103740004130FF30002903D107331B78002B03D110
:10375000002301211A00D6E7012B02D10B000A0039
:10376000D1E70B000A000221CDE7C04618CF0200C6
:10377000742400001DCF020059DD02000AD50200AA
:103780001CCF02001FB50C0001A807491DF092FCD8
:1037900001A92000FFF79EFF01A81DF03CFC0021BD
:1037A000200005F033F81FBD18CF0200F0B5936874
:1037B00089B0019000911400002B31D0364F05A83C
:1037C00039001DF077FC05A920001DF061FE0026E0
:1037D000050005A81DF01FFCB54223D0390002A842
:1037E0001DF068FC2D4905A81DF064FC05AA02A97E
:1037F00020001DF0DBFE05A81DF00DFC02A81DF049
:103800000AFC20001DF093FF210005A81DF0F6FC26
:1038100005AA00990198FFF7B5FF05A81DF0FBFB6D
:1038200009B0F0BD019B35015D19696805A81DF05F
:1038300041FC05A920001DF02BFE070005A81DF086
:10384000EAFB002F1ED0696802A81DF033FC134963
:1038500005A81DF02FFC05AA02A920001DF0A6FE58
:1038600005A81DF0D8FB02A81DF0D5FB20001DF017
:103870005EFF210005A8ED681DF0C0FC05A90098B9
:10388000A847CAE701361C2ECCD1012304491A00EF
:10389000009803F05DF8C3E719D5020066E0020066
:1038A0001CD50200F0B50C002C4E89B001903100FF
:1038B00005A81DF0FFFB002205A920001DF01CFE3D
:1038C000050005A82DB21DF0A6FB0135310005A8A5
:1038D0001DF0F0FB2A0005A920001DF00DFE07B227
:1038E00005A81DF098FB310005A81DF0E3FB7A1C2C
:1038F00005A920001DF000FE009005A81DF08BFB1F
:10390000310005A81DF0D6FB6B4600269E5F05A979
:103910000136320020001DF0EFFD009005A81DF0DB
:103920007AFB2A003B00210002A81DF021FE6B4615
:10393000029D00229B5E2100320005A81DF018FEAA
:10394000059A2900019805F0EDF805A81DF063FB24
:1039500002A81DF060FB09B0F0BDC046BDC7020063
:103960000023F0B589B001938B6804000D00002B93
:1039700067D0524905A81DF09DFB05A928001DF040
:10398000CBFD06B205A81DF046FB002E14DB32006D
:1039900029000A3205A8FEF7B1FB05A81DF0F0FECC
:1039A000474B421F9A4200D972E0464BE050012338
:1039B000019305A81DF02FFB434905A81DF07AFBD4
:1039C00005A928001DF0A8FD06B205A81DF023FBDF
:1039D000002E36DB08363200290002A8FEF78EFBE7
:1039E00002A81DF0CDFE3949070005A81DF062FBB5
:1039F000320005A928001DF07FFD06B205A81DF0C4
:103A00000AFB002E4BDB2900721C05A8FEF776FB93
:103A100005A81DF0B5FE45B205A81DF0FCFAFBB2E5
:103A2000172B3FD8EBB2172B3CD87FB2BD4239D011
:103A3000274BE754274BE5540123019302A81DF0BF
:103A4000EAFA254B2549E5181E4B2800E25824F0D8
:103A50000FFF01222000110002F0F4FE1C4BE25681
:103A6000002A03DB1B4BE356002B22DA1C492800FB
:103A700024F036FF01222000110002F0E3FE019B3A
:103A8000002B03D00021200005F0C4F909B0F0BDDF
:103A9000012314491A00200002F05AFF89E701258A
:103AA0006D42BCE7012310491A00200002F050FFCC
:103AB000C4E70E49280024F0DBFEDBE705C902005D
:103AC0000B0E00003024000027C902009BCF02002B
:103AD00034240000352400007424000052C9020080
:103AE0006DC902000FC902002FC902008AC9020075
:103AF000F0B54C4BFBB0C7188B6804000D00002BD1
:103B000061D0494903A81DF0D5FA03A928001DF08A
:103B100003FD06B203A81DF07EFA002E1FDB063659
:103B2000424903A81DF0C6FA320003A928001DF07F
:103B3000E3FC32000300290068461DF019FD03A8CC
:103B40001DF069FA029B3F2B58D8394900234022C7
:103B5000611868461DF0B6FC68461DF05CFA3549F0
:103B600003A81DF0A7FA03A928001DF0D5FC06B292
:103B700003A81DF050FA002E1DDB06362B4903A8C2
:103B80001DF098FA320003A928001DF0B5FC3200A0
:103B90000300290068461DF0EBFC03A81DF03BFA6A
:103BA00068461DF0EDFD80B2002831D0224BE05276
:103BB00068461DF030FA912301229B01E254002156
:103BC000200005F027F9210003A802F0A1FC2DAA8E
:103BD0001A49380024F04CFE01222000110002F0A6
:103BE00031FE3DAB1A881649380024F041FE01220F
:103BF0002000110002F026FE7BB0F0BD1149380014
:103C000024F06EFE01222000110002F01BFEA3E74B
:103C10000D49380024F064FE01222000110002F05A
:103C200011FEC5E77424000091CB02009BCF020077
:103C300008230000C3CB020048230000E8CB0200A9
:103C4000F6CB020097CB0200C9CB0200F0B54E4B79
:103C5000FBB0C7188B6804000D00002B61D04B49E6
:103C600003A81DF027FA03A928001DF055FC06B291
:103C700003A81DF0D0F9002E1FDB0636444903A827
:103C80001DF018FA320003A928001DF035FC32009F
:103C90000300290068461DF06BFC03A81DF0BBF96A
:103CA000029B3F2B5BD83B490023402261186846AA
:103CB0001DF008FC68461DF0AEF9374903A81DF059
:103CC000F9F903A928001DF027FC06B203A81DF08E
:103CD000A2F9002E1DDB06362D4903A81DF0EAF9D6
:103CE000320003A928001DF007FC32000300290060
:103CF00068461DF03DFC03A81DF08DF968461DF0D7
:103D00003FFD80B2002834D0244BE05268461DF0BD
:103D100082F9912301229B01E2540021200005F049
:103D200079F8210003A802F0F3FBF6221C496A444B
:103D3000380024F09DFD01222000110002F082FDD8
:103D400085235B006B449A8D1649380024F090FD62
:103D500001222000110002F075FD7BB0F0BD124978
:103D6000380024F0BDFD01222000110002F06AFDA0
:103D7000A0E70E49380024F0B3FD01222000110015
:103D800002F060FDC2E7C0467424000091CB02003F
:103D90009BCF02004A230000C3CB02008A2300000D
:103DA000EFCA0200FCCA0200A6CA0200D1CA020081
:103DB000012210B5024B0349C25406F00FF910BDA1
:103DC0002C2F0000B80B000070B5AA258B6886B0B8
:103DD00004000E00FF35002B20D0174968461DF067
:103DE00069F9164903A81DF065F9694603AA300070
:103DF0001DF0DCFB03A81DF00EF968461DF00BF961
:103E000030001DF094FC30001DF0BAFC0C4BC0B229
:103E100060550021E054200004F0FCFF094B625D76
:103E2000E018094924F024FD01222000110002F0CD
:103E300009FD06B070BDC0461128030066E002000F
:103E4000392400007424000067CF02007FB58B681E
:103E500006000C00002B31D02E4901A81DF02AF9D4
:103E600001A920001DF058FB050001A81DF0D3F8A2
:103E70002B0405D40021284A300007F07BF91DE00F
:103E8000264901A81DF016F901A920001DF044FBE8
:103E900005B201A81DF0BFF8002D10DB2A1D21007E
:103EA00001A8FEF72BF901A81DF041FC0121019AA0
:103EB000300007F05FF901A81DF0ADF87FBD18498B
:103EC00001A81DF0F7F801A920001DF025FB05B29F
:103ED00001A81DF0A0F8002D0ADBAA1D210001A8F1
:103EE000FEF70CF901A81DF022FC019A0221DFE780
:103EF0000C4901A81DF0DEF8200001A91DF00CFB03
:103F0000040001A81DF087F82304D7D4024A032136
:103F1000B2E7C0467ACF020066E002007ECF020020
:103F200082CF020088CF020010B5054C0549200061
:103F30001DF0C0F8044A054920001EF08EFD10BD9A
:103F4000EC02002090C702000000002017100200C1
:103F5000F0B50C00B44EA9B03100050017A81DF053
:103F6000A9F817A920001DF0D7FA070017A81DF01F
:103F700052F8002F00DADCE031000CA81DF09AF8AE
:103F8000AA4917A81DF096F817AA0CA920001DF041
:103F90000DFB17A81DF03FF80CA81DF03CF8200001
:103FA0001DF0C5FB2B00D5331B780293002B07D1E6
:103FB00001331A009E49280002F0CAFC29B0F0BD66
:103FC0009C4B1968002905D09B489C4B9C4A28189B
:103FD00013F040FD9B4E17A831001DF06BF817A998
:103FE00020001DF099FA070017A81DF014F801230E
:103FF0000393002F17DB31000CA81DF05BF88B49F1
:1040000017A81DF057F817AA0CA920001DF0CEFA2A
:1040100017A81DF000F80CA81CF0FDFF20001DF0F3
:1040200086FB00230393884E17A831001DF042F849
:1040300017A920001DF070FA070017A81CF0EBFF6D
:1040400001230493002F17DB31000CA81DF032F878
:10405000764917A81DF02EF817AA0CA920001DF00C
:10406000A5FA17A81CF0D7FF0CA81CF0D4FF20005D
:104070001DF05DFB00230493744E17A831001DF062
:1040800019F817A920001DF047FA070017A81CF01F
:10409000C2FF002F15DB31000CA81DF00BF863499F
:1040A00017A81DF007F817AA0CA920001DF07EFA2A
:1040B00017A81CF0B0FF0CA81CF0ADFF20001DF0ED
:1040C00036FBA368002B5FD00027A368002B6BD0C2
:1040D0005F490CA81CF0EEFF0CA920001DF01CFA93
:1040E00006B20CA81CF097FF504909A81CF0E2FF8B
:1040F000002E21DC210009A81DF070F8A268002123
:1041000020001DF0E7FA2E00C936FF36300009996D
:1041100019F03EFB2C234343F6180436F27F002AA5
:1041200020D017ABD855013709A8FFB21CF073FF98
:10413000CBE7002302934DE73300002221000CA8B7
:104140001DF016FA0CA909A81DF062F80CA81CF0C5
:1041500062FF2000721C00211DF0BCFA20001DF03F
:10416000E6FAD0E7EB183B4AD133FF33A8183A49B7
:104170001A6824F07DFB01222800110002F062FB86
:1041800009A81CF048FF19E72A001F00EC32FF3293
:1041900017A91078002802D0CB550137FFB20133A0
:1041A000DBB22C32432BF4D12A4BF022EC181F49FE
:1041B000200024F0B5FB039B002B04D0274A28499C
:1041C000200024F055FB049B002B0CD0200024F091
:1041D0008FFB8021234B8900091A0093224A230078
:1041E000200024F013FB0026F3B29F4240D92C227A
:1041F00017ABF35C1D495343EB18D133FF331B68F6
:104200002200200024F034FB7B1EB3420ADD200094
:1042100024F06EFB80239B00191A114A2300200012
:1042200024F0F4FA0136DFE78ECE020066E00200E9
:1042300092CE0200484700204C28000002420000B5
:10424000ACCE0200B8CE0200C0CE0200C6CE020044
:10425000EAF5020074240000CCCE0200EFCE02008A
:10426000F6CE0200FACE0200F4CE0200A0CF020089
:10427000029B002B04D0614B2100E8181CF03CFD90
:1042800001222800110002F0DDFA1DF0EBFA059082
:104290005B481BF077F8002800D08AE01DF0E2FAB6
:1042A00058490790200024F01BFB039B002B11D0E2
:1042B000280002F0ABFA200024F01AFB80239B00B8
:1042C000191A2B002D33FF3300934F4A230020008F
:1042D00024F09CFA049B002B13D0200024F008FB50
:1042E00006001DF0BFFA80239B00991B059B474ADF
:1042F000C01A00902300200024F088FA1DF0B2FAC2
:10430000059000260696F3B29F423ED92C22290042
:1043100017ABF35CC9315343FF31C9180CA8FEF742
:104320007FFA06AB9B7E0D3B112B02D80122384B46
:10433000EA540CA9280004F073FF06AB3E229B5EF2
:104340002000002B14D124F0D3FA80239B00191AEB
:10435000109B304A00932000230024F057FA069B5C
:104360000133DBB2069310A81CF055FE0136CAE7F4
:1043700024F0BEFA80239B00191A274B274A00938A
:104380002000230024F042FAEDE7069B9F4200D074
:104390007EE7029B002B04D0184B2100E8181CF08C
:1043A000ABFC01222800110002F04CFA079B059398
:1043B0006EE70024E3B29F4217D92C22290017ABE5
:1043C000E35CC93153430CAEFF31C9183000FEF72E
:1043D00027FAB3780D3B112B02D800220C4BEA547C
:1043E00010A81CF018FE0134E4E7029B002B00D15A
:1043F000E4E50B4BE81813F0EBFADFE53C2800008E
:10440000984C002066E00200F4CE020006CF0200C5
:10441000621E00000DCF020013CF0200A0CF0200E9
:104420004C280000F0B50D008FB0854904000BA8A2
:104430001CF040FE0BA928001DF06EF803B20BA87B
:1044400004931CF0E8FDAB68002B00D118E1049B3D
:10445000002B00DB14E17B490BA81CF02BFE0BA901
:1044600028001DF059F806B20BA81CF0D4FD002E50
:104470002EDB32002900083208A8FDF73FFE724902
:104480000BA81CF017FE0BA908A81DF001F80600E8
:104490000BA81CF0C0FD002E04D06C4B0121E018CD
:1044A00007F074F96A490BA81CF004FE0BA908A8D0
:1044B0001CF0EEFF06000BA81CF0ADFD002E04D092
:1044C000624B0021E01807F061F908A81CF0A3FD79
:1044D00060490BA81CF0EEFD0BA928001DF01CF88C
:1044E00006B20BA81CF097FD002E2DDB721D2900D3
:1044F00008A8FDF703FE54490BA81CF0DBFD0BA92F
:1045000008A81CF0C5FF06000BA81CF084FD002EB7
:1045100004D04E4B0121E01807F07BF94C490BA861
:104520001CF0C8FD0BA908A81CF0B2FF06000BA8E0
:104530001CF071FD002E04D0444B0021E01807F060
:1045400068F908A81CF067FD43490BA81CF0B2FDF0
:104550000BA928001CF0E0FF06B20BA81CF05BFDC5
:10456000002E33DB3200290008320BA8FDF7C6FD10
:104570000BA81DF0DCF80BA81DF002F90200374B68
:10458000C93AE618364B9A4200D975E1354F0021F9
:10459000E051200004F03EFCE2593349300024F0A1
:1045A00067F901222000110002F04CF92F481AF09F
:1045B000E9FE0028FAD0200002F0E4FC01222000ED
:1045C000110002F03FF90BA81CF025FD28490BA8AB
:1045D0001CF070FD0BA928001CF09EFF06B20BA872
:1045E0001CF019FD002E00DA3AE12900F21D0BA89B
:1045F000FDF784FD0BA81DF09AF80BA81DF0C0F87C
:10460000164BE518E023FF33984200D939E1194EE3
:104610000021A053200004F0FDFB1DF023F9164BF0
:104620001649E050A25B280024F022F90122200064
:10463000110002F007F90BA81CF0EDFC10E1C046D8
:10464000F5D20200FBD2020059DD0200D82E000094
:104650001DCF020052D4020057D40200742400007F
:10466000564D00001C2400005FD40200984C00202E
:1046700038CF02002C24000078260000CDD40200A0
:10468000824BE25A824BE518002A00D0EAE08149C9
:10469000280024F025F901222000110002F0D2F8B0
:1046A0007D4BE6187D4BE35C002B00D1DFE07C4BBB
:1046B0003100E718380006F01FFF7A4B0790E358E7
:1046C0003800069306F08EFE071C300006F006FF49
:1046D000BC231B01C01880000359381C029322F030
:1046E00055FE069B00900191079A6F49280024F01F
:1046F000BFF801222000110002F0A4F8300006F0FB
:1047000045FF6A4B6A49C01880000259280024F00E
:10471000AFF801222000110002F094F8049B002B56
:1047200000DA9DE001213000494207F072F8614F44
:104730006149C01980000259280024F099F801222B
:104740002000110002F07EF801213000494207F0FC
:104750001DF8C019800002595849280024F088F833
:1047600001222000110002F06DF8012130004942C1
:1047700007F029F8C019800002595149280024F097
:1047800077F801222000110002F05CF801213000CE
:10479000494206F0ADFF4B490200280024F068F8BA
:1047A00001222000110002F04DF8012130004942A1
:1047B00006F066FF44490200280024F059F801225F
:1047C0002000110002F03EF801213000494207F0BC
:1047D0004FF83E490200280024F04AF80122200048
:1047E000110002F02FF801213000494207F070F863
:1047F00037490200280024F03BF801222000110074
:1048000002F020F801213000494207F0B9F822F007
:10481000BDFD0B0002002F49280024F029F80122D9
:104820002000110002F00EF801213000494207F08B
:10483000A7F822F0ABFD04900591300007F028F9AD
:10484000254B002800D0254B00932549049A059B51
:10485000280024F00DF801222000110001F0F2FFE1
:104860000FB0F0BD1F49280024F002F813E71E49DD
:10487000280024F035F83CE71C49300024F030F8DB
:104880009CE61B49280024F02BF8CFE62C240000DE
:104890007424000003D30200D82E0000CA2E0000AA
:1048A000342D00001C24000026D30200C40B00009D
:1048B00060D30200C80B000068D3020070D302006E
:1048C0007BD3020086D30200A3D30200BED3020032
:1048D000E7D3020015D4020067D0020062D00200C4
:1048E00035D4020012D302004BD30200B6D402002A
:1048F000E9D40200F7B50023012401930500230049
:1049000022002449280002F023F800230126009306
:10491000019BF1B2204F002B00D0204F380013F044
:10492000F8FD380013F001FE1D4BEF18002823D1CD
:1049300032001C49380023F09BFF22002100280090
:1049400001F080FF009B0133DBB2009301367F2E24
:10495000DED1009A1449380023F08AFF220021009A
:10496000280001F06FFF019B012B00D1F7BD0194DE
:10497000230022000D49C5E70428E7D132000C4985
:10498000380023F075FF22002100280001F05AFFB3
:10499000DCE7C046F2C9020050470020140800209E
:1049A000742400004FCA020095CA02001FCA020008
:1049B00074CA02000120704770B505002C0008344D
:1049C000200014F09DF8002807D0200014F0ADF866
:1049D0000100034817F0DAFEF0E7012070BDC04681
:1049E000000600200022083010B50400110016F067
:1049F00006FE0249200017F0F5F810BD4C04000037
:104A0000F0B506008DB00D0001795748140002F092
:104A1000ABFA071E74D02800263806286CD835005B
:104A200008351FF08DFC044B4B707D8B97004F4970
:104A3000280017F08FFA230032330193002839D071
:104A40004A49280017F0A8FA002833D001235B4216
:104A50000B930023454928000A93099317F0AEF9F8
:104A6000434B4249C0180890280017F0C9F9013893
:104A700007903E49280017F0E5F93C4906902800C8
:104A800017F002FA39490590280017F01FFA374944
:104A90000490280017F03CFA0123019A0390137048
:104AA00003A822F0D5FF60633049280017F098FA78
:104AB000207021E00023019A1370F5E701232B49B0
:104AC0006370280017F0F1FA20F038FE22F05EFC47
:104AD0000022284B21F0D8F9A060E160234928008A
:104AE00017F0C2FA20F02AFE22F050FC0022214BDF
:104AF00021F0CAF9206161611CF0B4FEFC36B0619E
:104B000038000DB0F0BD012318492376280017F0B6
:104B1000EEFA20F013FE184920F022F9E061EBE7ED
:104B20000122631CDA771149280017F002FB20F0FC
:104B300005FE114920F014F96062DDE7230001222F
:104B400028331A700949280017F015FB20F040FEA1
:104B5000E062D1E72300012230331A7003492800B4
:104B600017F060FA3134A3E7140800204C04000069
:104B700094F8FFFFD012634100007A44F0B50600BC
:104B80008DB00F0001796B48140002F0EDF901902F
:104B9000002800D1BEE01CF065FEFC36F369C01AA7
:104BA000F423FF33984200D8B4E02200624D323241
:104BB00048352B781370002B24D001235B420B93D4
:104BC00000235E480A93099317F022FC5C4BC0183F
:104BD00008905A4817F028FC01380790574817F0FA
:104BE0002FFC0690280017F037FC0590280017F0DE
:104BF0003FFC0490280017F049FC039003A822F022
:104C000027FF606300224F4903A88B1D1031DA771C
:104C10001CF050FA03A81CF0B3FDC0B220700028AD
:104C20000AD149498B1DD877103103A81CF0F8FA36
:104C300003A81CF0A5FD20703F4D2B786370002B5E
:104C40005FD0280017F078FBA060E160280017F023
:104C500097FB206161612B0078331B782376002B52
:104C60005BD02B000022793304351A70E86F22F0F4
:104C700021FB0022354B21F007F922F0D9FBE0613E
:104C80002D4B611C1A0058321278CA77002A47D07F
:104C90001A0000215932186E117022F00BFB2C4AB9
:104CA0002C4B21F0FBFC0022284B21F0EDF822F0E8
:104CB000BFFB6062204D22002B0098331B78283206
:104CC0001370002B2FD02B00002299331A702B0069
:104CD000A033186820F032FDE0622B0022008833F8
:104CE0001B7830321370002B20D02B000022893328
:104CF00090351A702B68313423701CF0B3FDF061CD
:104D000005E03B00273B012BA5D80023019303A816
:104D10001CF081F901980DB0F0BD292FB0D1F4E756
:104D20002A2FC7D1F1E72B2FD7D1EEE72C2FE4D1D3
:104D3000EBE7C046140800200006002038060020DB
:104D400094F8FFFF8C030020180500200000594054
:104D5000CF16AD2F5476E03F482310B50370054BB6
:104D600004008360002304490373103017F0DBFD57
:104D7000200010BD3333534014080020037810B5D1
:104D80000400002B05D0406803681B689847002387
:104D90002370012010BD0000F0B50E00040085B0A6
:104DA00017001CF05FFD33002500FC33DB6A194A55
:104DB000C01A0835904204D8002B02D0002363703B
:104DC0001EE060682A00036826215B689847002877
:104DD00016D0237A002B13D023003A331B78002BF4
:104DE0000ED06378052B13D90A22E16B01A81CF0C1
:104DF000A3F901A9300002F01FF801A81CF00BF97B
:104E000060682A00036839005B68984705B0F0BD08
:104E10000133D4E780EE360010B5406803689B6824
:104E2000984710BD10B50248FFF7F6FF10BDC04609
:104E3000C003002070B5074D04000179280002F07E
:104E400093F8002805D02000034A0830290013F009
:104E5000FBFD70BD14080020A086010070B5184D40
:104E600004000179280002F07FF8002802D1002513
:104E7000280070BD083429004222200016F034FFBB
:104E8000051EF4D00F4A0021200016F018FE0D4A2E
:104E90000021200016F01AFE0A4A0121200016F017
:104EA00007FE084A0421200016F04EFF054A0121A2
:104EB000200016F091FE0349200016F00FFED7E700
:104EC000140800204C04000070B5050009480E00CD
:104ED00002F04AF8041E09D02B7B002B08D12800D1
:104EE0003100103017F026FD01232B73200070BD18
:104EF0001C00FBE714080020F7B5050000910178BD
:104F00002E4802F031F80190002829D02C001034EE
:104F10000021200017F015FD0099200017F014FD66
:104F2000274B984247D8274B98421BD98021200015
:104F3000890017F006FD244E244F0099200017F039
:104F400003FD20F045FCE021890520F0E1F822F086
:104F50001DFA32003B0021F0A1FB22F069FA6860E3
:104F60000198FEBD1A4B984207D980212000C90044
:104F700017F0E7FC144E174FDFE7174B984207D99D
:104F8000C0212000C90017F0DCFC0F4E134FD4E7FE
:104F9000134B984207D980212000090117F0D1FC5A
:104FA000094E104FC9E7A0212000090117F0C9FCE4
:104FB000054E0D4FC1E70D4E0D4FC2E714080020FE
:104FC00054550000AA2A0000FCA9F1D24D621040FD
:104FD000551500004D620040AA0A00004D62F03FE6
:104FE000550500004D62E03F4D62D03FFA7E6ABC3D
:104FF00074931840F8B504000E0001783648150087
:1050000001F0B2FF002801D10020F8BD207D00286A
:105010000FD0637BAB4201D10123A373E37BAB428F
:1050200001D101232374637CAB42EED10123A3742D
:10503000EBE72700E37C1837002B03D02749380023
:1050400017F0ACFFFA2040001CF042FC002322497C
:105050001A00380018F0FCF90028D5D0EC239B008A
:10506000F318DB7F002B20D0EB239B00F1183000DE
:1050700004F0D6F8002818D0EF239B00F0181CF09D
:1050800092FB174920F044F81FF088FBF922154BDA
:1050900081B2CB189BB25200934206D8380018F068
:1050A000B1F9002801D001232373380018F0C4F9A6
:1050B0000028A9D0637BAB4201D10123A373E37B1A
:1050C000AB4201D101232374627C0123AA4200D1A7
:1050D000A374237599E7C04614080020984C00205B
:1050E0000000204143FDFFFF70B5437B04008B426D
:1050F00001D100238373E37B8B4201D1002323740E
:10510000637C8B4201D10023A374A37B012B01D1CB
:1051100000200DE0237C0020012B09D0A37C05009A
:10512000012B05D02000183017F09EFF01202575B7
:1051300070BD10B504003E2909D03F290CD03D298F
:105140000FD1183018F07AF86080012010BD1830A7
:1051500018F08DF86060F8E7183018F07DF8A0605E
:10516000F3E70020F2E7000037B58B1E0B4A18303A
:105170009BB20400934201D818F063F96B468C216E
:105180009D1D2A00C901200018F07CF8200017F0AE
:105190006BFF200018F050F928883EBD060700007C
:1051A000183010B50400012902D118F0FBF801E015
:1051B0000029FAD0200017F027FF10BD0B0037B5EB
:1051C000C822913BFF3B18309BB20D000400D20077
:1051D000934206D8002118F0E5F82900200018F0C5
:1051E000EBF86B469D1D00232A00034920002B800D
:1051F00018F048F828883EBD04520000F0B50400BD
:10520000060085B002AB9D1D18340F1C0192164993
:105210002A00200018F036F83E213000FFF789FF01
:105220007668391C301C1FF085FA002817D0391C0D
:10523000301C20F09FF8011C200018F0D1F82A0043
:105240000949200018F01EF8288822F033F80022BF
:10525000064B20F019FE22F0EBF805B0F0BD019BE3
:10526000002BECD00021E7E7035400000000594078
:10527000F0B504008FB01D002D2A00D290E13C2A29
:1052800000D892E13F2A00D98AE1C94E0BA831002B
:105290001BF010FF0BA928001CF0FAF807000BA860
:1052A0001BF0B9FE002F2FD0310008A81BF002FF21
:1052B000C0490BA81BF0FEFE0BAA08A928001CF091
:1052C00075F90BA81BF0A7FE08A81BF0A4FE280088
:1052D0001CF02DFA28001CF053FAB74D81B22800BB
:1052E000FFF742FFB54905A81BF0F1FF05A90BA880
:1052F0001BF084FF00212800FFF736FF01000A227F
:1053000008A81BF007FF59E0AD4E0BA831001BF0B9
:10531000D1FE0BA928001CF0BBF807000BA81BF05E
:105320007AFE002F5ED0310008A81BF0C3FEA14911
:105330000BA81BF0BFFE0BAA08A928001CF036F929
:105340000BA81BF068FE08A81BF065FE28001CF0E7
:10535000EEF99C490BA81BF0ADFE0BA928001CF030
:1053600097F807000BA81BF056FE934E0121002F63
:105370000ED195490BA81BF09DFE28000BA91CF02F
:1053800087F805000BA81BF046FE002D03D039005E
:105390003000FFF705FF8D4905A81BF098FF05A910
:1053A0000BA81BF02BFF3000183017F02DFE85499D
:1053B000002800D1844908A81BF07CFE08A90BA88E
:1053C0001BF0EBFF010020001BF018FF08A81BF0EA
:1053D00022FE0BA81BF01FFE05A81BF01CFE2000E0
:1053E0000FB0F0BD7A4E0BA831001BF063FE0BA985
:1053F00028001CF04DF807000BA81BF00CFE002F36
:1054000026D0310008A81BF055FE6A490BA81BF0F6
:1054100051FE0BAA08A928001CF0C8F80BA81BF025
:10542000FAFD08A81BF0F7FD28001CF080F9280001
:105430001CF0A6F90500674905A81BF048FF05A95F
:105440000BA81BF0DBFEA9B25B48FFF7B7FE55E7E0
:10545000614E0BA831001BF02DFE0BA928001CF09B
:1054600017F807000BA81BF0D6FD002F78D03100ED
:1054700008A81BF01FFE4F490BA81BF01BFE0BAA30
:1054800008A928001CF092F80BA81BF0C4FD08A87E
:105490001BF0C1FD28001CF04AF94B490BA81BF07A
:1054A00009FE0BA928001BF0F3FF06000BA81BF058
:1054B000B2FD002E52D1AB68002B4AD0310028003B
:1054C0001BF0FCFF3038C0B2092842D828001CF07D
:1054D0006AF900270190384D3E212800FFF729FE88
:1054E0003E4902A81BF0F3FE02A908A81BF086FEA5
:1054F0000222696805A81BF09EFE05A908A81BF0FA
:105500004CFF374E31001BF063FF36491BF060FF44
:105510003A00009001992800FFF770FE0222011C5A
:105520000BA81BF088FE0BA900981BF036FF31007A
:105530001BF04EFF010020001BF060FE0BA81BF0CB
:105540006AFD05A81BF067FD08A81BF064FD02A812
:1055500043E7254920001BF0BAFE40E70127BAE7E0
:1055600022490BA81BF0A6FD28000BA91BF090FFF9
:1055700005000BA81BF04FFD002D0FD01C4905A8FE
:105580001BF0A5FE05A90BA81BF038FE0A4B194914
:105590001B7B002B00D00EE717490CE71749D9E712
:1055A000174920001BF086FD19E71649F9E7C046A8
:1055B000B3CD020066E00200800500200BD7020098
:1055C00020D7020059DD02001DCF020028D70200BB
:1055D00040D702004AD7020068D7020094D70200E1
:1055E000AAD70200ADD7020070D7020066D8020029
:1055F000C4D7020000D7020005D70200E9D7020095
:105600006FD80200B6D8020030B50024C1B00B003C
:10561000A14211D04478002C11D0802218005200F1
:10562000694617F047FF074D074928001BF048FB64
:10563000694628001BF060FB200041B030BD01240A
:10564000FAE7C046984C0020DAD80200F8B504000A
:105650000A200D001CF03CF9154E2178300001F0B5
:1056600083FC071E22D0A37D002B10D0237CAB42ED
:1056700001D101236374A37CAB4201D10123E37404
:10568000237DAB4201D1012363753800F8BD3100A1
:1056900026001836300017F0C8FF300017F0C7FF9B
:1056A00001002000FFF7B0FF0028DFD00027ECE763
:1056B000140800200B00223B10B50020202B16D828
:1056C00018001EF03DFE11111515171717171717A3
:1056D000171B1B1B1B2020202022222222242424D3
:1056E000242626262A2A2A000E4809F071FA10BD1F
:1056F0000D48FAE70D48FFF741FBF8E70C4B002295
:1057000001201A73F3E70B4BF9E70B4BF7E70B4B51
:10571000F5E70B48FFF7E8FCE9E70A48FFF796FFD3
:10572000E5E7C046D0050020E8050020C0030020C2
:1057300004030020200300203C0300205803002025
:1057400080050020B4050020F7B56B4601AE9D1C16
:105750009F1D3B00040032002900183017F082FF23
:1057600001002000FFF750FF002398421FD10023C3
:10577000F85E21F09FFD0F4B002220F085FB21F009
:1057800057FE642160600023F05E1EF077FE00B2D9
:105790001FF0D4FFA0600023E85E21F08BFD064BD4
:1057A000002220F071FB21F043FE0123E06018008D
:1057B000FEBDC046000069400000144070B50023E3
:1057C0001400907886B022381500D3841034202835
:1057D00000D98AE01EF0B4FD111E27292B384F593D
:1057E000636D77819194979A9C9EA0A2A4A6A8AA83
:1057F000ACAEB0B2BFC9D3D9DF006C4E300009F0F7
:10580000CCFA002800D170E00222316903A81BF015
:1058100012FD27E0654E300009F0BFFA002864D081
:1058200002227169F2E7624EE8E7614EF3E7614EEA
:1058300026223000FFF7B0FA002856D0317A0A222B
:1058400003A81BF056FC0DE05A4E27223000FFF74C
:10585000A3FA002849D032697369062103A8009190
:105860001BF007FD03A920001BF0D2FC03A81BF0CE
:10587000D2FB06B070BD4F4E28223000FFF78CFAE5
:10588000002832D0B269F369E7E74A4E2922300096
:10589000FFF782FA002828D00222716AB6E7454E47
:1058A0002A223000FFF778FA00281ED00222F16A7F
:1058B000ACE7404E2B223000FFF76EFA002814D0E0
:1058C0000222716BA2E73B4E2C223000FFF764FAF4
:1058D00000280AD039363178B1E7374E0021300040
:1058E000FFF70AFB062200283DD1344920001BF0B7
:1058F00097FC01235B42EB84BBE72F4E0121EEE7CF
:105900002D4E0221EBE72C4E0321E8E72C4EE5E774
:105910002B4EF3E72A4EF4E7294EF5E7294EDDE753
:10592000284EEBE7274EECE7264EEDE7264ED5E76F
:10593000254EE3E7244EE4E7234EE5E7234E3D21E1
:105940003000FFF7F6FB0028CFD071880A2203A8A9
:105950001BF0E0FB86E71D4E3E213000FFF7E9FB20
:105960000028C2D00222716850E7184E3F21300053
:10597000FFF7DFFB0028B8D00222B16846E7144EDB
:1059800040213000FFF7E0FEEAE7114E41213000F0
:10599000FFF7DAFEEEE70E4E42213000FFF7D4FEAD
:1059A0000028A2D00222F16830E7C046D0050020CE
:1059B000E8050020C00300200403002053EE02008D
:1059C000200300203C030020580300208005002015
:1059D000B4050020F8B5494C494920001BF06AFB8A
:1059E000484A494920001DF038F8484C442221001B
:1059F000474809F0DFF8210000244522454809F016
:105A0000D9F8454B10215A1CD4771A00283214704B
:105A10001A00303214701A00383214701A003A32F8
:105A200014703E4A1C705C701C725C72DC633C4BF0
:105A300008321A6002221A713A4A1C633A4B083241
:105A40001A6019711900FC33DC61384B384D08338A
:105A50002B604223FF314C7336482B7113F08CF8C6
:105A6000FC353548AC61FFF777F93448FFF774F936
:105A70003348FFF771F93348FFF76EF9324D0627C7
:105A80002800002661233A0030490D302B706E60EB
:105A9000AE606C802C7321F0ECFE280002221830DE
:105AA000EC742C75EA8217F06EFA294D5D232800FC
:105AB0002B70264B3A00D91910306C706E60AE60B6
:105AC000EE6021F0D6FE28001830AC7517F0AAFD64
:105AD00010222049204812F037FF204C200016F0F9
:105AE0006DFB3B0021001E4A1E4816F0D9FE3B000C
:105AF0001D4A21001D4816F0D3FEF8BDF802002013
:105B000090C70200000000201710020014080020B7
:105B1000D0050020E8050020C0030020E4D80200E2
:105B20004C050020F8D80200D80600200CD902004D
:105B300000040020080400200403002020030020AB
:105B40003C030020580300208005002033D50200CC
:105B5000B405002000D602007403002000060020D7
:105B60003FD502008C03002045D502001805002017
:105B700070B50A4C01790600200001F0F5F9051E08
:105B80000AD03179200012F0C4FC0121200012F06B
:105B9000DEFD200012F0C9FC280070BD14080020B2
:105BA00070B50F4C05000179200001F0DDF90028E7
:105BB00015D02979200012F0ACFC0021200012F051
:105BC000C6FD200012F0B1FC29790122200012F05C
:105BD0009AFC200012F014FE431E9841C0B270BD22
:105BE0001408002070B504000078002815D10B4D72
:105BF0002800FFF733F9002803D0012365602370E4
:105C00000BE0074D2800FFF715F90028F5D1054DE9
:105C10002800FFF7C5FF0028EFD170BD0004002069
:105C2000D80600204C050020F0B5037C85B00700A5
:105C30000E001500002B0FD16C46264823702371EF
:105C400022004369016912F0F9FE3B0007CC07C34B
:105C500022681A6001233B742B00223B0020202B7A
:105C600016D818001EF06CFB11111616181818180B
:105C70001818181C1C1C1C21212121242424242731
:105C80002727272A2A2A30303000134809F06AF8DB
:105C900005B0F0BD1148F9E71148FFF7A3FFF7E79A
:105CA00048211048FFF710F9F2E749210E48F9E7BB
:105CB0004A210E48F6E74B210D48F3E72A00310050
:105CC0000C48FFF797F9E3E729000B48FFF7BEFC04
:105CD000DEE7C04674030020D0050020E805002060
:105CE000C003002004030020200300203C03002008
:105CF0005803002080050020B4050020F0B55B4F5C
:105D000085B00191017904003800150001F02CF9EB
:105D10000290002804D100230293029805B0F0BD40
:105D20001BF0A0FD236BC01AF423FF33984202D866
:105D30002B78002BF1D12179380012F0EAFB0221F7
:105D4000380012F004FD380012F0EFFB2179282210
:105D5000380012F0D8FB1BF085FD0600380012F069
:105D6000FCFB002807D11BF07DFDFA23801B5B00A4
:105D70009842F3D9CFE723002D33661D03933800F3
:105D800012F03EFD039B307001369E42F7D12F008A
:105D9000667932372E70237F3B70002B06D02100AE
:105DA000280004221D31343021F063FD002E00D183
:105DB0003E70A3796B70002B42D00822E11DA81819
:105DC00021F057FD2100280008220F31103021F06A
:105DD00050FDE37D2B76002B37D0210028000422D4
:105DE00018311C3021F045FDA31CDB7F6A1CD377E2
:105DF000002B2ED02100280004222231243021F053
:105E000038FD2A00E31DDB7F28321370002B24D0DD
:105E100021002800042227312C3021F02AFD230004
:105E20002A002B331B7830321370002B19D023003B
:105E30002C331B7831352B701BF014FD20636CE77D
:105E4000019B273B012BC4D865E7019B292BCBD1B4
:105E500061E7019B2A2BD4D15DE7019B2B2BDED17F
:105E600059E7019B2C2BE7D155E7C04614080020C9
:105E7000002070470300806C10B5002802D010F09D
:105E800061FA10BDD86C002802D00EF075FEF8E75C
:105E900001204042F5E70300806C10B5002802D0D5
:105EA00010F094FB10BDD86C0028FBD00FF096FBCF
:105EB000F8E703000020834206D01A7A7F3082433D
:105EC000002902D11A727E387047042002431A72E8
:105ED00019600338F8E70A21435E0200181E01D05A
:105EE0001B01D018704770B50D00041E0FD0C1689B
:105EF000A9420CD0002D06D0002904D0280022F0A1
:105F0000E5FC002803D02000FFF7E5FFEDE72000C7
:105F100070BD4A688B681032934204D201230B741F
:105F2000002318007047103B8B60002BF9D04268AB
:105F3000002A08D0991A09115181002243605A8120
:105F40001A72DA60EDE70360F7E70000F7B503784F
:105F500004000F002B2B1DD02D2B1CD1012601344A
:105F600023781A00303A092A02D92E2B00D0BFE03C
:105F700000200A255F4922781300303BDBB2092B51
:105F80000BD888421CD8DA436843824218D3C01821
:105F90000134F0E701340026E2E7002A10D13B7A11
:105FA0007F329343002E05D0753A13433B7238601D
:105FB0003000FEBD082213433B7238600126F7E72C
:105FC00000254D4B984205D90A2101351EF0CCF928
:105FD0006DB2F6E723781A00303A092A03D8013562
:105FE0006DB20134F6E72E2B0FD10A21434A01345A
:105FF0002378303BDBB2092B07D8904203D84843C3
:10600000013D18186DB20134F2E7202322789A433B
:106010000023452A3AD162782D2A1FD10234013358
:106020000193002321783039CAB2092A2AD80A22DA
:106030005343CB18E918262922DD019A3B7A7F20A9
:10604000002A11D00024002E01D0802424060C2127
:1060500083430B433B723C60019EA9E72B2A01D08E
:106060000134DDE70234DBE7002E06D024490C22A0
:10607000834313433B723960A0E7FF21C905F6E76C
:106080000134CFE7019A002A00D05B422478002C2B
:106090002ED1ED181FF09CFB002D1ADD01231D42AF
:1060A00004D0184AA300D1581FF032F801346D1003
:1060B000E4B2002DF2D1002E02D080231B06C018BE
:1060C0007F223B7A386093431A000C2313433B72C0
:1060D00074E76D42002DEED001231D4204D00A4A20
:1060E000A300D1581FF014F801346D10E4B2F1E7A9
:1060F00000265DE799999919FFFF7F00CBCC0C0032
:10610000000080FF98D9020080D9020070B50025F8
:106110000400436A011DC3181D7100681BF00EF9CD
:10612000656270BD902310B5DB00C4588EB00A00C4
:10613000002C09D06946002368460B808B70210033
:1061400010F0F2FA0EB010BD094BC1582000002922
:10615000F8D031236B441C7032236B441C70332302
:106160006B441C70684623000EF0B4FFEAE7C0469B
:1061700084040000902310B5DB00C4588EB00A00E0
:10618000002C0FD00023694668460B808B700133CA
:10619000210010F0C9FA002802D0684611F076F804
:1061A0000EB010BD0D4BC15820000029F8D031238E
:1061B0006B441C7032236B441C7033236B441C7083
:1061C000684601230EF086FF002801D10020E7E792
:1061D00068460FF01FF90028F8D0E1E784040000BA
:1061E000902330B5DB001500C2588FB0002A13D0C1
:1061F0006846002303808370194814180A00684613
:10620000210010F03DFA002804D02A002100684641
:1062100010F07CFB0FB030BD124BC4581000002CA6
:10622000F8D031236B441A7032236B441A70332335
:106230006B441A708923DB00E418684613000A00D7
:1062400021000EF0EDFE002801D10020E2E72A0037
:10625000210068460FF04AFA0028F6D0DAE7C04677
:106260004404000084040000836B30B5002B09D087
:106270001A78002012071DD5D8695B69C01A19D594
:106280000D4817E0C16B081E14D00B00313318788D
:1062900000240025030707D50A694B690868496887
:1062A000121A8B4114001D002000034A002DE7D173
:1062B0009442E5D830BDC046FFFFFF7F10B51030D7
:1062C000FFF7D2FF10BD836B002B06D018782F2369
:1062D0009843431E9841C0B27047C36B181EFBD051
:1062E0003133187850231840F3E7826B0123002ADA
:1062F00003D1C36B581E8341DBB218007047000006
:1063000070B5040000201300044A0D00116881429A
:1063100003D02A00200011F09DFB70BD48470020EB
:106320000300806B10B5002802D00FF045FF10BDB0
:10633000D86B002802D00EF045FBF8E70120404260
:10634000F5E713B56B46DC1D01222100FFF7E8FFDE
:10635000012801D1207816BD01204042FBE710B58D
:106360001030FFF7EEFF10BD10B50400806B002861
:1063700002D0002110F016F8E06B002803D00022B4
:1063800000230EF013FC10BD836B10B5002B03D05F
:10639000180010F065FB10BDC46B1800002CFAD07B
:1063A00020000FF05FFAF6E710B51030FFF7ECFFB2
:1063B00010BD07B56B46D9710733103001221900A3
:1063C000FFF7E2FF0EBD000010B5024812F01DFA03
:1063D00010BDC04614080020F8B5B42300250126DE
:1063E00004004360783B83600670457005730B22A0
:1063F00043490D3021F03DFA2000290007221830D2
:1064000021F053FA052720003A00E5773D49203076
:1064100021F02FFA200029003B22253021F045FAF7
:1064200020003A003749603021F023FA200029008B
:106430003B22653021F039FA23002000A0331D7083
:106440003A003049A13021F014FA2000290002223C
:10645000A63021F02AFA2000294915225231A8300D
:1064600021F007FA200029002B22BD3021F01DFA6F
:1064700023002000244A2549AA33DA871231142246
:10648000EA3021F0F6F9200029002C22FE3021F01C
:106490000CFA23005022EC33DA87D9235B00E55451
:1064A0002300B333FF335D709D70DD70DB23C022AA
:1064B0005B00E65492000233E2522300FA22B93321
:1064C000FF33D2005A60E0235B00E55423000F2223
:1064D000C133FF331E719A60E62392185B00E252CB
:1064E000E12204339200E250012204335242E2528C
:1064F0000433E654DA236532FF332000E254F8BD5A
:10650000B0D90200C2D902005B07000030DA0200F5
:10651000EE2210B50400034B5200C91821F0A9F96E
:10652000200010BD602200000B6870B55B69080098
:106530000C0098470025C0B20D2806D023684540BE
:106540005B6920009847C0B2F6E7280070BD0000E4
:1065500010B50400054B0022C018FFF7D1FE044B14
:106560002000E118FFF7E0FF10BDC0464C280000F6
:106570003C280000F7B51B4B0700C3181A49180048
:106580000193002622F0ACF904253C00C934FF3405
:106590002000310017F032F92C234343E41804346F
:1065A000E27F002A10D0CA22FB18FF329A5CFA2A36
:1065B0000AD00C4A0D49A818E622520038189A58F9
:1065C00022F056F92D18ADB20136F6B2432EDCD1C9
:1065D0000020019B5D19AB4203D01A780133504073
:1065E000F9E7FEBD74240000D2E50200D7E5020001
:1065F000F0B50C0087B00190584920001AF060FBFC
:10660000E62701000A2256481AF0FFFB00267F0009
:10661000019B3100C933FF33180000932C2517F07C
:10662000EDF84543009B5B190433DB7F002B0ED054
:10663000019B5D19CA23FF33EB5CFA2B07D0494954
:1066400020001AF03DFBE95920001AF039FB013611
:10665000F6B2432EDCD1444920001AF04DFB4349E9
:1066600020001AF02DFB00263100009817F0C6F824
:106670002C254543009B5D192B1DDB7F002B14D07F
:106680006B78FA2B11D0374920001AF019FBE96812
:1066900003A81AF00FFD059F03A81AF0BCFC002FF9
:1066A00003D0E96820001AF00BFB0136F6B2432E46
:1066B000DAD12D4E200031001AF01EFB2C492000AB
:1066C0001AF0FEFA00252900009817F097F82C27F9
:1066D0004743009BDB191A1DD27F002A0ED05B783E
:1066E000FA2B0BD01F4920001AF0EAFA019B200078
:1066F000DF19D137FF3739681AF0E2FA0135EDB208
:10670000432DE0D1310020001AF0F6FA00252900CF
:10671000009817F073F82C274743009BDB191A1DCC
:10672000D27F002A0FD05B78FA2B0CD00D492000C5
:106730001AF0C6FA019B0A22DF19CA37FF37F97F20
:1067400020001AF054FB0135EDB2432DDFD13100AA
:1067500020001AF0D1FA07B0F0BDC046D2E5020021
:10676000984C0020EAF5020066E002003ADF0200E1
:10677000EFCE0200114B12495A880A405A805A78CB
:10678000D209FCD10F4A5A805A78D209FCD10E4A5C
:106790005A605A7852B2002AFBDB80225968920371
:1067A0000A435A605A7852B2002AFBDBC023074AD8
:1067B0009B0051680B4353607047C046000C00407B
:1067C000FFBFFFFF05460000060301000040004137
:1067D000002310B586B004A814000491059320F09E
:1067E000F5FE016803694269039141680133029132
:1067F0008168643A0191C16820000091024922F049
:1068000037F806B010BDC04611E80200030070B5AD
:106810000600F0331D782D360400FF36002D0AD017
:106820002530FF300DF068FF320001002000FFF737
:10683000CFFF280070BD0249300022F051F8F8E780
:10684000F61A0300F8B5374B0400C35C0F00002BA9
:106850005BD0354BC35C5B18012B06DD334BC11895
:106860003348002A4ED01AF047FA324BE35C002B33
:1068700022D0314B314AE61831493000FFF740FD54
:106880003000FFF732FD002844D02000FFF7BEFFA4
:1068900021002C4B2D31E518FF3128001AF010FA99
:1068A000294928001AF00CFA204B2800E1181AF0A8
:1068B00023FA300011F08CF8032F22D11E4B1F4A0F
:1068C000E51822492800FFF71BFD2800FFF70DFD02
:1068D000002823D02000FFF799FF2100194B2D310C
:1068E000E618FF3130001AF0EBF9174930001AF0C2
:1068F000E7F90E4B3000E1181AF0FEF9280011F00C
:1069000067F8F8BD1AF0DCF9AFE701211A201BF097
:10691000DBFBAAE72300D5331870CDE7D534207010
:10692000EFE7C046282F0000162400007424000062
:10693000984C0020122400004C2800000242000065
:106940007CE602003C28000086E602008AE602009F
:10695000F7B501931D4B0400C71808000D00160081
:1069600021F0C6FF39000200280021F0C8FF009086
:10697000002814D1164BE35C9B19012B0FDD237EFD
:106980000133DBB22376092B08D9012311491A0000
:106990002000FFF7DDFF6B461B782376F7BD002351
:1069A0002376032E0BD12B000B4AF021380021F067
:1069B0002DFF019A31002000FFF744FFEEE7F0229F
:1069C0002900380021F0ACFFF3E7C0467424000032
:1069D0001624000094E60200B3E6020070B504003D
:1069E0001AF040FF124E0025A359C01A632818D987
:1069F0001AF038FFA05105201BF092FB434258418A
:106A00002300D533187005201BF08AFB01231A00E0
:106A1000A84208D1200007493C340135FFF798FF10
:106A20002570280070BD04492000FFF791FFF8E7AA
:106A300078260000E3E70200F3E7020010B5040047
:106A4000054B0649C01821F04BFF00220121200010
:106A5000FFF7F8FE10BDC0467424000075E6020082
:106A60002C23F7B54B43C3180193E423019A5B0031
:106A7000D55C04000F00C618012D41D0002D1CD09C
:106A8000022D3FD02C2300255F43F61904369D3399
:106A9000019AF577FF33D35CAB422FD1E7191F4B37
:106AA000D137FF373A68E0181D4921F0E1FE012295
:106AB00020001100FFF7C6FE20E003238B426D414A
:106AC000184B3900E0180AF0CFF9002822D02C2307
:106AD0005F43E319114AD133FF33A01812491A68F2
:106AE00021F0C6FE012220001100FFF7ABFEDC23DF
:106AF0000125F71904371B01FD77E5542800FEBD79
:106B00000025DDE70A0001000848FFF78DF800289E
:106B1000B8D0DCE7002DB5D0D9E7C046742400001A
:106B200089CD0200C80D00007DCD020000080020C4
:106B3000F7B505002C00C934FF3426002C270C20A3
:106B40001BF0C6F80D4BEB1801932378012B0AD1EB
:106B5000A1780B4BCB185B00EB181B79002B07D0EF
:106B60002800FFF77DFF019B2C349C42EDD1F7BD3F
:106B7000794371180431CB77F5E7C0464C0D00001E
:106B8000C4110000F8B52C23E4224B435200C31873
:106B90009F5C244B04000E00C518012F36D0002F37
:106BA0000DD0022F34D02C237343E318D133FF339D
:106BB00028001A681C4921F05BFE002514E003221E
:106BC0008A427F41194B3100E01808F0A3FC0028ED
:106BD00024D02C237343E318D133FF3328001A68E1
:106BE000134921F045FE0125012220001100FFF785
:106BF00029FE2C21002371436118CD31FF31CB7761
:106C0000DC2301221B012800E254F8BD0027D9E74C
:106C10000848FEF74FFD0028C5D0DAE7002FC2D0A4
:106C2000D7E7C0467424000016E40200C80D000037
:106C3000A5CD020000080020264BF0B5C7182C2374
:106C40004B43C31816001A00D13289B0FF3204003A
:106C50000193126833680D0038001F4921F008FEC7
:106C6000012220001100FFF7EDFDE423019A5B00F3
:106C7000D35C012B03D0022B10D009B0F0BD310042
:106C800005A81AF0BBFA154B2A00E018210005AB45
:106C900009F06EFD05A81AF0BEF9EEE7310005A86F
:106CA0001AF0ACFA05AB2A000D4902A8FEF7E0FA8B
:106CB00005A81AF0B0F9049B39005A1C02A8002359
:106CC0001AF000FC012220001100FFF7BBFD02A812
:106CD000E1E7C046742400000FE40200C80D000084
:106CE00000080020F0B505002535FF3591B00400FF
:106CF00028000DF0F7FC060028000DF0E9FC070065
:106D000028000DF0DBFC3B0000903200404908A851
:106D100021F0AEFD3F4B08A9E31818000293FFF7DE
:106D200001FA071E35D008A92000FFF711FC060064
:106D30002000FFF71FFC86422BD0012628000DF013
:106D4000D1FC039028000DF0C3FC070028000DF0D3
:106D5000B5FC3B0001960090039A2F4904A821F04E
:106D600087FD04A90298FFF7DDF90136F6B2071E88
:106D7000E4D12A4B04AA2A49E01821F079FD012226
:106D800020001100FFF75EFD04AA08A90298FFF792
:106D900027FA244B244AE31808A918000293FFF7A6
:106DA000AFFA061E14D12300D53318705870012392
:106DB0001E491A002000FFF7CBFD200002224130BF
:106DC000FF303300110005F0DFF8300011B0F0BDE6
:106DD000174BE3180393002F03D119002000FFF78E
:106DE00007FC144B0398E11819F06AFF029810F0A1
:106DF000EFFD2300D4331B78022BE6D123000022C1
:106E00004C331A7028000DF077FC6064DDE7C04653
:106E10007DE802008C28000090E802007424000045
:106E2000A8E802004C28000002420000DBE8020053
:106E30003C2800003B1F0000F7B506002536FF3652
:106E4000040030000F000DF057FC050038001AF068
:106E500097FC010030000DF0C1FB30000DF04CFC40
:106E6000019038001AF08CFC019B0133181A02289B
:106E70003ED826230122FF33E2542300E8331A725E
:106E8000002230005A729A721A600DF035FCA36C21
:106E90001B4A5B1B1B18A364636CA1185B1B1B18AC
:106EA0006364E3695B1B1B18E3612300E533FF3375
:106EB000401B1A68002A01D082181A602C338B42BA
:106EC000F7D11AF0CFFC2300FC33D8622000FFF783
:106ED0009DFC22000B4B2D32FF32E0180A4921F0B5
:106EE000C7FC012220001100FFF7ACFC0120FEBD11
:106EF000012320001A000549FFF72AFD0020F6E7CC
:106F0000680D000074240000A0E70200B0E7020052
:106F10000C4B37B51A680C4B0C49C2500C4B0D4C3E
:106F20001B680D4D43500D49096801510C4C2468F4
:106F3000445104354019009101940A4921F098FC0C
:106F400037BDC0460CA08000302F0000342F000059
:106F500040A08000382F00003C2F000044A080009B
:106F600048A0800054E0020010B504000368DB6A0A
:106F70009847236820005B6B984743425841C0B252
:106F800010BD0000F32310B55B010400C15C0C4888
:106F9000FFF7EAFF002804D0F3235B01E01808F0B4
:106FA000E3F9012307491A002000FFF7D1FCBFF3E2
:106FB0004F8F054B054ADA60BFF34F8FC046FDE7A0
:106FC0005047002077E8020000ED00E00400FA05D9
:106FD00070B5457A0400002D02D00025280070BD50
:106FE0001AF040FC23686268C01A904201D8002B56
:106FF000F3D1A27AE37A9A4202D101236372EDE7D8
:107000001AF030FCA37A20600133A3720125E5E772
:1070100000230372437283720360704703002033BE
:107020000360436088239B00C3188360C360002310
:107030007F220374037F9343037770470B6810B577
:107040004B60CB687F248B6000230A7F0B74A243C4
:1070500014004B618B6120220B00224314330A770A
:107060000360416010BD20220B7F13401A1E01D027
:107070000A001432026041607047021E07D07F216F
:10708000037A00200B40043B012B00D810687047A6
:10709000002310B5047E82689C4203D043698B4272
:1070A00007DC02698B4206DA002A0AD052680133F3
:1070B000F8E70023F6E78B4205D101214361017611
:1070C0000261100010BD0022FBE7F8B50025416801
:1070D00004002E00A94210DD057601290FD00239E7
:1070E000FFF7D6FF0700436818001E781AF0B6FCB9
:1070F00063687D60013BE76063603000F8BD8368D2
:1071000018001E781AF0AAFCA560E5606560F4E737
:10711000F0B524C8954211D90800130007781C78EF
:107120005E1CBC4204D1002C09D001303300F5E7CD
:10713000187801331A000028FAD1EBE7002210007A
:10714000F0BD03000020834208D01A7A7F308243CA
:1071500010000822024301201A7219607047F7B527
:107160000027040000911600B84206D0B94206D1AB
:107170007F22037A9343037201273800FEBD0099F2
:107180001000FFF7C5FF051E1CD1009821F0B0FBD1
:10719000030075680133B268EB180190934207D978
:1071A000012333747F22237A002793432372E4E779
:1071B0007360002DF6D0019A0099280020F059FB49
:1071C000019BEF547F22237A256093431A00052305
:1071D00013432372D0E70023F7B504000F00160015
:1071E0000093984208D00968994207D17F22037A18
:1071F00093430372012300930098FEBD1000FFF734
:1072000087FF051E1BD1BB6875680193B268013307
:10721000EB18934207D9012333747F22237A9343D7
:1072200023720023E7E77360002DF6D0019A3968D6
:10723000280020F01EFB6A46019B1278EA547F2248
:10724000237A256093431A00052313432372D1E761
:1072500010B5002802D00068FEF745FE10BDF8B555
:1072600003000E004068D968FFF7F2FF031E0CD040
:107270007F22007A10400638062832D81DF060F8C8
:107280002D312431043106000420F8BD186820F0A7
:107290007DF8040030680D0020F046F80B00020075
:1072A00006000F00200029001DF0F6F9030004205D
:1072B000002BEAD13B003200200029001DF000FA2B
:1072C000431E98410130E0E71A68336804209A426F
:1072D000DBD3934280414042F4E71A68501E82415A
:1072E000F3E70020D1E770B505000C001600002878
:1072F00011D0081E0FD02868FEF7F5FD00280AD12E
:1073000031002800FEF705FE002804D07F22037A12
:10731000C4601340037270BD437C002B06D1C36868
:107320005A1CC2601B78037401234374007C7047AD
:1073300010B504002000FFF7EFFF0A2806D809283F
:1073400008D2002809D0012020720CE00D2801D0BD
:107350002028F8D100236374ECE7237A58345A1EAE
:1073600093410133237010BD1FB57F220300007AC3
:1073700010400438082826D81CF0E2FF080805252C
:10738000052525251300186804B010BD18680023D2
:1073900001AC23722100FEF7D9FD2000FFF7E4FFC6
:1073A000F2E71C680021201C1DF0CEF90028EBD06C
:1073B0009F21201CC9051DF0B3F90028E4D0201C32
:1073C0001DF0ECF9E0E70020DEE770B504000D00E9
:1073D000FFF7A2FF0023A84201D163740133180014
:1073E00070BD2F2815D90123392803D95E2803D968
:1073F0007A2803D81800704740280AD901235A2850
:10740000F8D9002301222D38C0B282425B41DBB2A1
:10741000F0E701232B28F4D1ECE737B500236A46C7
:107420001370C3B27F280BD853706B460233013BF5
:107430001878002831D00A68541C0C601070F6E7E8
:107440003F2480226D4623405242134380096B70D3
:1074500085B2C3B21F2D06D8403213436A469370DB
:107460006B460333E3E76D46234000041343800D6E
:10747000AB70C3B20F2805DC202252421343EB70DD
:1074800001ABD4E71C40102380115B4218436B46CC
:107490002243EA7028710533C9E737BDF7B5050007
:1074A0000027FFF739FF6F7401902800FFF734FFC2
:1074B0000024019A03006C74824259D0A04204D186
:1074C0000223583500202B70FEBD5C284BD12800CC
:1074D000FFF722FF0028F3D0284B752839D1042666
:1074E0006C742800FFF718FF0028E9D0402806D860
:1074F0003038C0B20F2806D958350323E2E72023DD
:1075000098433738F5E700232401013E0443F6B2DF
:10751000A4B26B749E42E4D1A0239B01E318184AE5
:107520009BB2934202D8A405A70DBEE790239B010E
:10753000E3189BB22000934206D880238005BC024A
:10754000800D20435B02C0182900FFF766FFACE7FF
:1075500002331A78002ACFD09042F9D15B78002B01
:10756000CAD000226A742A68511C296013709CE7F3
:107570002B6801205A1C2A601C70A5E703DD02005D
:10758000FF030000036870B543600400FFF7C4FE0A
:1075900027280DD022280BD02000FFF7BDFE0500C4
:1075A000FFF71FFF061E09D103235834237003E0A1
:1075B0002000FFF773FF0600300070BD00236374E6
:1075C000236820005A1C22601D70FFF7A5FE0500ED
:1075D000FFF707FF0028F1D123685A1C22601870BA
:1075E000EAE7F7B504000D001F1CFFF7A1FE0190AC
:1075F000002801D1002658E02000FFF78DFE272843
:1076000000D17BE01DD8222800D177E02000FFF7D1
:1076100083FE002600900098F7B2FFF7E2FE0028F4
:1076200000D17EE00136402E00D179E06A46002389
:1076300012786374A319DA752000FFF76DFE0090CD
:10764000E9E75B2813D07B28E0D17F222B7A290041
:1076500093431A00202313432B72002300222B6034
:107660006B6020003B1C00F087F806001DE07F22C5
:107670002B7AFFB293431A00402313432B7200234B
:107680002B606B609F4203D1583406332370B1E7FF
:1076900063742000FFF74CFE0028ABD05D21200072
:1076A000FFF793FE061E02D0019E3000FEBD616909
:1076B0002800FEF72EFC011E03D10423583423704A
:1076C000F3E77B1E00222000FFF78BFF002800D18C
:1076D00090E72000FFF72CFE002800D18AE75D210B
:1076E0002000FFF772FE0028DED12C212000FFF7DA
:1076F0006CFE0028DBD158340323C7E72368200041
:107700006360FFF7CBFE061E00D173E77F2263683C
:107710002B602B7A93431A00042313432B72C4E784
:107720003F270021E3191976237E742B0DD17F2288
:107730002B7A93431A00062313432B7201232B60E9
:10774000042FB1D058340223A0E7662B0AD17F2240
:107750002B7A296093431A00062313432B72052FBB
:10776000F0D1A1E76E2BEBD0200029001830FEF7F6
:10777000EDFB0028BFD097E7F7B5DFB204000E009D
:10778000002F04D106235834237000250DE0002378
:107790004374FFF7CDFD01900028F6D07D21200035
:1077A000FFF713FE051E28D0019D2800FEBD63686B
:1077B000306819000093FEF796FB002831D00100D5
:1077C0007B1E00222000FFF70CFF0028DDD02000E8
:1077D000FFF7AEFD0028D8D07D212000FFF7F5FD92
:1077E0000028E1D12C212000FFF7EFFD002814D064
:1077F0002000FFF79DFD0028C7D02000FFF7C2FE44
:107800000028C2D02000FFF793FD0028BDD03A2108
:107810002000FFF7DAFD0028C9D103235834237074
:10782000C3E761693000FEF774FB002802D15834C9
:107830000423F4E77F22037A13400372009BC360A2
:10784000BDE70000F0B504007F26131C026899B064
:107850004260C26817AF8260257F0020B54325775C
:107860000A6821000192104A01AD2074029028722A
:107870000492687438701431002228000694FFF7CF
:10788000B0FE387800280BD12B7C002B08D0237F4A
:107890001E400C2E06D07D221340082B00D1033051
:1078A00019B0F0BD0320FBE76F0A002030B5446833
:1078B0008A1843680568AB4207D2914205D05D1C27
:1078C00045600D7801311D70F3E700221A7043689E
:1078D00082681B1BD318836030BD70B5050008009B
:1078E0000C0021F005F8210002002800FFF7DEFF60
:1078F00070BD000070B5050000242B7CA34206D9A2
:10790000034928000134FFF7E8FFE4B2F5E770BD52
:107910009ACF020010B5426804680023A24205D243
:10792000541C446011704268137001338268D3188C
:10793000836010BD70B50D00040022212000FFF708
:10794000E9FF2978002909D00A4B01351E78002E5D
:10795000F4D05A788A4206D00233F7E72221200079
:10796000FFF7D8FF70BD5C212000FFF7D3FF310087
:10797000E4E7C04605DD0200F0B5162407000D005F
:107980000A2687B06C44280031001CF073FD013CCE
:1079900030312170280031001CF0E6FC051EF2D1C8
:1079A00016236B441A1B21003800FFF77FFF07B036
:1079B000F0BD000010B5002903D00349FFF78DFF8B
:1079C00010BD0249FAE7C04662D0020067D002004B
:1079D0000623F7B50E1C070083725849301C1CF0B3
:1079E000B3FE002844D00023142420250093544BD8
:1079F000311C18591CF094FE002809D0514B301C42
:107A000019591DF085FB009B061CE81803B2009372
:107A1000043C6D10231DEAD103340021301C1CF0FE
:107A200089FE002828D0301C1FF0B0FC464A474B86
:107A30001CF03CFE00281FD0A300019323061BD49A
:107A4000434B019A311C98581CF074FE00280AD050
:107A50003B4B019A301C99581DF05AFB009B061CA9
:107A6000581B03B20093019B6D10013C043BE4E7FB
:107A7000202505240090D0E76B461B88301C3B81F5
:107A80001CF08CFE0400334D38600190019B092BE3
:107A90000DD90A2128001CF067FCBB7A0500013BC8
:107AA0000198BB720A211CF05FFC0190EEE72000F8
:107AB0001DF08EFE011C301C1DF05CFC061C280015
:107AC0001DF086FE011C301C1DF022FB01901CF0F5
:107AD00065FE06001DF07CFE011C01981DF04AFCAD
